{
  "_format": "hh-sol-artifact-1",
  "contractName": "NFT",
  "sourceName": "contracts/NFT.sol",
  "abi": [
    {
      "inputs": [
        {
          "internalType": "address",
          "name": "marketplaceAddress",
          "type": "address"
        }
      ],
      "stateMutability": "nonpayable",
      "type": "constructor"
    },
    {
      "anonymous": false,
      "inputs": [
        {
          "indexed": true,
          "internalType": "address",
          "name": "owner",
          "type": "address"
        },
        {
          "indexed": true,
          "internalType": "address",
          "name": "approved",
          "type": "address"
        },
        {
          "indexed": true,
          "internalType": "uint256",
          "name": "tokenId",
          "type": "uint256"
        }
      ],
      "name": "Approval",
      "type": "event"
    },
    {
      "anonymous": false,
      "inputs": [
        {
          "indexed": true,
          "internalType": "address",
          "name": "owner",
          "type": "address"
        },
        {
          "indexed": true,
          "internalType": "address",
          "name": "operator",
          "type": "address"
        },
        {
          "indexed": false,
          "internalType": "bool",
          "name": "approved",
          "type": "bool"
        }
      ],
      "name": "ApprovalForAll",
      "type": "event"
    },
    {
      "anonymous": false,
      "inputs": [
        {
          "indexed": true,
          "internalType": "address",
          "name": "from",
          "type": "address"
        },
        {
          "indexed": true,
          "internalType": "address",
          "name": "to",
          "type": "address"
        },
        {
          "indexed": true,
          "internalType": "uint256",
          "name": "tokenId",
          "type": "uint256"
        }
      ],
      "name": "Transfer",
      "type": "event"
    },
    {
      "inputs": [
        {
          "internalType": "address",
          "name": "to",
          "type": "address"
        },
        {
          "internalType": "uint256",
          "name": "tokenId",
          "type": "uint256"
        }
      ],
      "name": "approve",
      "outputs": [],
      "stateMutability": "nonpayable",
      "type": "function"
    },
    {
      "inputs": [
        {
          "internalType": "address",
          "name": "owner",
          "type": "address"
        }
      ],
      "name": "balanceOf",
      "outputs": [
        {
          "internalType": "uint256",
          "name": "",
          "type": "uint256"
        }
      ],
      "stateMutability": "view",
      "type": "function"
    },
    {
      "inputs": [
        {
          "internalType": "string",
          "name": "tokenURI",
          "type": "string"
        }
      ],
      "name": "createToken",
      "outputs": [
        {
          "internalType": "uint256",
          "name": "",
          "type": "uint256"
        }
      ],
      "stateMutability": "nonpayable",
      "type": "function"
    },
    {
      "inputs": [
        {
          "internalType": "uint256",
          "name": "tokenId",
          "type": "uint256"
        }
      ],
      "name": "getApproved",
      "outputs": [
        {
          "internalType": "address",
          "name": "",
          "type": "address"
        }
      ],
      "stateMutability": "view",
      "type": "function"
    },
    {
      "inputs": [
        {
          "internalType": "address",
          "name": "owner",
          "type": "address"
        },
        {
          "internalType": "address",
          "name": "operator",
          "type": "address"
        }
      ],
      "name": "isApprovedForAll",
      "outputs": [
        {
          "internalType": "bool",
          "name": "",
          "type": "bool"
        }
      ],
      "stateMutability": "view",
      "type": "function"
    },
    {
      "inputs": [],
      "name": "name",
      "outputs": [
        {
          "internalType": "string",
          "name": "",
          "type": "string"
        }
      ],
      "stateMutability": "view",
      "type": "function"
    },
    {
      "inputs": [
        {
          "internalType": "uint256",
          "name": "tokenId",
          "type": "uint256"
        }
      ],
      "name": "ownerOf",
      "outputs": [
        {
          "internalType": "address",
          "name": "",
          "type": "address"
        }
      ],
      "stateMutability": "view",
      "type": "function"
    },
    {
      "inputs": [
        {
          "internalType": "address",
          "name": "from",
          "type": "address"
        },
        {
          "internalType": "address",
          "name": "to",
          "type": "address"
        },
        {
          "internalType": "uint256",
          "name": "tokenId",
          "type": "uint256"
        }
      ],
      "name": "safeTransferFrom",
      "outputs": [],
      "stateMutability": "nonpayable",
      "type": "function"
    },
    {
      "inputs": [
        {
          "internalType": "address",
          "name": "from",
          "type": "address"
        },
        {
          "internalType": "address",
          "name": "to",
          "type": "address"
        },
        {
          "internalType": "uint256",
          "name": "tokenId",
          "type": "uint256"
        },
        {
          "internalType": "bytes",
          "name": "_data",
          "type": "bytes"
        }
      ],
      "name": "safeTransferFrom",
      "outputs": [],
      "stateMutability": "nonpayable",
      "type": "function"
    },
    {
      "inputs": [
        {
          "internalType": "address",
          "name": "operator",
          "type": "address"
        },
        {
          "internalType": "bool",
          "name": "approved",
          "type": "bool"
        }
      ],
      "name": "setApprovalForAll",
      "outputs": [],
      "stateMutability": "nonpayable",
      "type": "function"
    },
    {
      "inputs": [
        {
          "internalType": "bytes4",
          "name": "interfaceId",
          "type": "bytes4"
        }
      ],
      "name": "supportsInterface",
      "outputs": [
        {
          "internalType": "bool",
          "name": "",
          "type": "bool"
        }
      ],
      "stateMutability": "view",
      "type": "function"
    },
    {
      "inputs": [],
      "name": "symbol",
      "outputs": [
        {
          "internalType": "string",
          "name": "",
          "type": "string"
        }
      ],
      "stateMutability": "view",
      "type": "function"
    },
    {
      "inputs": [
        {
          "internalType": "uint256",
          "name": "tokenId",
          "type": "uint256"
        }
      ],
      "name": "tokenURI",
      "outputs": [
        {
          "internalType": "string",
          "name": "",
          "type": "string"
        }
      ],
      "stateMutability": "view",
      "type": "function"
    },
    {
      "inputs": [
        {
          "internalType": "address",
          "name": "from",
          "type": "address"
        },
        {
          "internalType": "address",
          "name": "to",
          "type": "address"
        },
        {
          "internalType": "uint256",
          "name": "tokenId",
          "type": "uint256"
        }
      ],
      "name": "transferFrom",
      "outputs": [],
      "stateMutability": "nonpayable",
      "type": "function"
    },
    {
      "inputs": [
        {
          "internalType": "address",
          "name": "from",
          "type": "address"
        },
        {
          "internalType": "address",
          "name": "to",
          "type": "address"
        },
        {
          "internalType": "uint256",
          "name": "tokenId",
          "type": "uint256"
        }
      ],
      "name": "transferToken",
      "outputs": [],
      "stateMutability": "nonpayable",
      "type": "function"
    }
  ],
  "bytecode": "0x60806040523480156200001157600080fd5b5060405162002f7338038062002f738339818101604052810190620000379190620001e6565b6040518060400160405280600981526020017f4d657461766572736500000000000000000000000000000000000000000000008152506040518060400160405280600481526020017f4d455454000000000000000000000000000000000000000000000000000000008152508160009080519060200190620000bb9291906200011f565b508060019080519060200190620000d49291906200011f565b50505080600860006101000a81548173ffffffffffffffffffffffffffffffffffffffff021916908373ffffffffffffffffffffffffffffffffffffffff16021790555050620002c5565b8280546200012d9062000246565b90600052602060002090601f0160209004810192826200015157600085556200019d565b82601f106200016c57805160ff19168380011785556200019d565b828001600101855582156200019d579182015b828111156200019c5782518255916020019190600101906200017f565b5b509050620001ac9190620001b0565b5090565b5b80821115620001cb576000816000905550600101620001b1565b5090565b600081519050620001e081620002ab565b92915050565b600060208284031215620001f957600080fd5b60006200020984828501620001cf565b91505092915050565b60006200021f8262000226565b9050919050565b600073ffffffffffffffffffffffffffffffffffffffff82169050919050565b600060028204905060018216806200025f57607f821691505b602082108114156200027657620002756200027c565b5b50919050565b7f4e487b7100000000000000000000000000000000000000000000000000000000600052602260045260246000fd5b620002b68162000212565b8114620002c257600080fd5b50565b612c9e80620002d56000396000f3fe608060405234801561001057600080fd5b50600436106100f55760003560e01c80636352211e11610097578063b88d4fde11610066578063b88d4fde14610296578063c87b56dd146102b2578063e985e9c5146102e2578063f5537ede14610312576100f5565b80636352211e146101fc57806370a082311461022c57806395d89b411461025c578063a22cb4651461027a576100f5565b8063095ea7b3116100d3578063095ea7b31461017857806323b872dd1461019457806342842e0e146101b057806345576f94146101cc576100f5565b806301ffc9a7146100fa57806306fdde031461012a578063081812fc14610148575b600080fd5b610114600480360381019061010f9190611c9e565b61032e565b6040516101219190612108565b60405180910390f35b610132610410565b60405161013f9190612123565b60405180910390f35b610162600480360381019061015d9190611d31565b6104a2565b60405161016f91906120a1565b60405180910390f35b610192600480360381019061018d9190611c62565b610527565b005b6101ae60048036038101906101a99190611b5c565b61063f565b005b6101ca60048036038101906101c59190611b5c565b61069f565b005b6101e660048036038101906101e19190611cf0565b6106bf565b6040516101f39190612365565b60405180910390f35b61021660048036038101906102119190611d31565b610723565b60405161022391906120a1565b60405180910390f35b61024660048036038101906102419190611af7565b6107d5565b6040516102539190612365565b60405180910390f35b61026461088d565b6040516102719190612123565b60405180910390f35b610294600480360381019061028f9190611c26565b61091f565b005b6102b060048036038101906102ab9190611bab565b610aa0565b005b6102cc60048036038101906102c79190611d31565b610b02565b6040516102d99190612123565b60405180910390f35b6102fc60048036038101906102f79190611b20565b610c54565b6040516103099190612108565b60405180910390f35b61032c60048036038101906103279190611b5c565b610ce8565b005b60007f80ac58cd000000000000000000000000000000000000000000000000000000007bffffffffffffffffffffffffffffffffffffffffffffffffffffffff1916827bffffffffffffffffffffffffffffffffffffffffffffffffffffffff191614806103f957507f5b5e139f000000000000000000000000000000000000000000000000000000007bffffffffffffffffffffffffffffffffffffffffffffffffffffffff1916827bffffffffffffffffffffffffffffffffffffffffffffffffffffffff1916145b80610409575061040882610d6e565b5b9050919050565b60606000805461041f906125bb565b80601f016020809104026020016040519081016040528092919081815260200182805461044b906125bb565b80156104985780601f1061046d57610100808354040283529160200191610498565b820191906000526020600020905b81548152906001019060200180831161047b57829003601f168201915b5050505050905090565b60006104ad82610dd8565b6104ec576040517f08c379a00000000000000000000000000000000000000000000000000000000081526004016104e3906122a5565b60405180910390fd5b6004600083815260200190815260200160002060009054906101000a900473ffffffffffffffffffffffffffffffffffffffff169050919050565b600061053282610723565b90508073ffffffffffffffffffffffffffffffffffffffff168373ffffffffffffffffffffffffffffffffffffffff1614156105a3576040517f08c379a000000000000000000000000000000000000000000000000000000000815260040161059a90612305565b60405180910390fd5b8073ffffffffffffffffffffffffffffffffffffffff166105c2610e44565b73ffffffffffffffffffffffffffffffffffffffff1614806105f157506105f0816105eb610e44565b610c54565b5b610630576040517f08c379a0000000000000000000000000000000000000000000000000000000008152600401610627906121e5565b60405180910390fd5b61063a8383610e4c565b505050565b61065061064a610e44565b82610f05565b61068f576040517f08c379a000000000000000000000000000000000000000000000000000000000815260040161068690612325565b60405180910390fd5b61069a838383610fe3565b505050565b6106ba83838360405180602001604052806000815250610aa0565b505050565b60006106cb600761123f565b60006106d76007611255565b90506106e33382611263565b6106ed8184611431565b61071a600860009054906101000a900473ffffffffffffffffffffffffffffffffffffffff16600161091f565b80915050919050565b6000806002600084815260200190815260200160002060009054906101000a900473ffffffffffffffffffffffffffffffffffffffff169050600073ffffffffffffffffffffffffffffffffffffffff168173ffffffffffffffffffffffffffffffffffffffff1614156107cc576040517f08c379a00000000000000000000000000000000000000000000000000000000081526004016107c390612225565b60405180910390fd5b80915050919050565b60008073ffffffffffffffffffffffffffffffffffffffff168273ffffffffffffffffffffffffffffffffffffffff161415610846576040517f08c379a000000000000000000000000000000000000000000000000000000000815260040161083d90612205565b60405180910390fd5b600360008373ffffffffffffffffffffffffffffffffffffffff1673ffffffffffffffffffffffffffffffffffffffff168152602001908152602001600020549050919050565b60606001805461089c906125bb565b80601f01602080910402602001604051908101604052809291908181526020018280546108c8906125bb565b80156109155780601f106108ea57610100808354040283529160200191610915565b820191906000526020600020905b8154815290600101906020018083116108f857829003601f168201915b5050505050905090565b610927610e44565b73ffffffffffffffffffffffffffffffffffffffff168273ffffffffffffffffffffffffffffffffffffffff161415610995576040517f08c379a000000000000000000000000000000000000000000000000000000000815260040161098c906121a5565b60405180910390fd5b80600560006109a2610e44565b73ffffffffffffffffffffffffffffffffffffffff1673ffffffffffffffffffffffffffffffffffffffff16815260200190815260200160002060008473ffffffffffffffffffffffffffffffffffffffff1673ffffffffffffffffffffffffffffffffffffffff16815260200190815260200160002060006101000a81548160ff0219169083151502179055508173ffffffffffffffffffffffffffffffffffffffff16610a4f610e44565b73ffffffffffffffffffffffffffffffffffffffff167f17307eab39ab6107e8899845ad3d59bd9653f200f220920489ca2b5937696c3183604051610a949190612108565b60405180910390a35050565b610ab1610aab610e44565b83610f05565b610af0576040517f08c379a0000000000000000000000000000000000000000000000000000000008152600401610ae790612325565b60405180910390fd5b610afc848484846114a5565b50505050565b6060610b0d82610dd8565b610b4c576040517f08c379a0000000000000000000000000000000000000000000000000000000008152600401610b4390612285565b60405180910390fd5b6000600660008481526020019081526020016000208054610b6c906125bb565b80601f0160208091040260200160405190810160405280929190818152602001828054610b98906125bb565b8015610be55780601f10610bba57610100808354040283529160200191610be5565b820191906000526020600020905b815481529060010190602001808311610bc857829003601f168201915b505050505090506000610bf6611501565b9050600081511415610c0c578192505050610c4f565b600082511115610c41578082604051602001610c2992919061207d565b60405160208183030381529060405292505050610c4f565b610c4a84611518565b925050505b919050565b6000600560008473ffffffffffffffffffffffffffffffffffffffff1673ffffffffffffffffffffffffffffffffffffffff16815260200190815260200160002060008373ffffffffffffffffffffffffffffffffffffffff1673ffffffffffffffffffffffffffffffffffffffff16815260200190815260200160002060009054906101000a900460ff16905092915050565b8273ffffffffffffffffffffffffffffffffffffffff16610d0882610723565b73ffffffffffffffffffffffffffffffffffffffff1614610d5e576040517f08c379a0000000000000000000000000000000000000000000000000000000008152600401610d5590612345565b60405180910390fd5b610d69838383610fe3565b505050565b60007f01ffc9a7000000000000000000000000000000000000000000000000000000007bffffffffffffffffffffffffffffffffffffffffffffffffffffffff1916827bffffffffffffffffffffffffffffffffffffffffffffffffffffffff1916149050919050565b60008073ffffffffffffffffffffffffffffffffffffffff166002600084815260200190815260200160002060009054906101000a900473ffffffffffffffffffffffffffffffffffffffff1673ffffffffffffffffffffffffffffffffffffffff1614159050919050565b600033905090565b816004600083815260200190815260200160002060006101000a81548173ffffffffffffffffffffffffffffffffffffffff021916908373ffffffffffffffffffffffffffffffffffffffff160217905550808273ffffffffffffffffffffffffffffffffffffffff16610ebf83610723565b73ffffffffffffffffffffffffffffffffffffffff167f8c5be1e5ebec7d5bd14f71427d1e84f3dd0314c0f7b2291e5b200ac8c7c3b92560405160405180910390a45050565b6000610f1082610dd8565b610f4f576040517f08c379a0000000000000000000000000000000000000000000000000000000008152600401610f46906121c5565b60405180910390fd5b6000610f5a83610723565b90508073ffffffffffffffffffffffffffffffffffffffff168473ffffffffffffffffffffffffffffffffffffffff161480610fc957508373ffffffffffffffffffffffffffffffffffffffff16610fb1846104a2565b73ffffffffffffffffffffffffffffffffffffffff16145b80610fda5750610fd98185610c54565b5b91505092915050565b8273ffffffffffffffffffffffffffffffffffffffff1661100382610723565b73ffffffffffffffffffffffffffffffffffffffff1614611059576040517f08c379a0000000000000000000000000000000000000000000000000000000008152600401611050906122c5565b60405180910390fd5b600073ffffffffffffffffffffffffffffffffffffffff168273ffffffffffffffffffffffffffffffffffffffff1614156110c9576040517f08c379a00000000000000000000000000000000000000000000000000000000081526004016110c090612185565b60405180910390fd5b6110d48383836115bf565b6110df600082610e4c565b6001600360008573ffffffffffffffffffffffffffffffffffffffff1673ffffffffffffffffffffffffffffffffffffffff168152602001908152602001600020600082825461112f91906124d1565b925050819055506001600360008473ffffffffffffffffffffffffffffffffffffffff1673ffffffffffffffffffffffffffffffffffffffff1681526020019081526020016000206000828254611186919061244a565b92505081905550816002600083815260200190815260200160002060006101000a81548173ffffffffffffffffffffffffffffffffffffffff021916908373ffffffffffffffffffffffffffffffffffffffff160217905550808273ffffffffffffffffffffffffffffffffffffffff168473ffffffffffffffffffffffffffffffffffffffff167fddf252ad1be2c89b69c2b068fc378daa952ba7f163c4a11628f55a4df523b3ef60405160405180910390a4505050565b6001816000016000828254019250508190555050565b600081600001549050919050565b600073ffffffffffffffffffffffffffffffffffffffff168273ffffffffffffffffffffffffffffffffffffffff1614156112d3576040517f08c379a00000000000000000000000000000000000000000000000000000000081526004016112ca90612265565b60405180910390fd5b6112dc81610dd8565b1561131c576040517f08c379a000000000000000000000000000000000000000000000000000000000815260040161131390612165565b60405180910390fd5b611328600083836115bf565b6001600360008473ffffffffffffffffffffffffffffffffffffffff1673ffffffffffffffffffffffffffffffffffffffff1681526020019081526020016000206000828254611378919061244a565b92505081905550816002600083815260200190815260200160002060006101000a81548173ffffffffffffffffffffffffffffffffffffffff021916908373ffffffffffffffffffffffffffffffffffffffff160217905550808273ffffffffffffffffffffffffffffffffffffffff16600073ffffffffffffffffffffffffffffffffffffffff167fddf252ad1be2c89b69c2b068fc378daa952ba7f163c4a11628f55a4df523b3ef60405160405180910390a45050565b61143a82610dd8565b611479576040517f08c379a000000000000000000000000000000000000000000000000000000000815260040161147090612245565b60405180910390fd5b806006600084815260200190815260200160002090805190602001906114a092919061191b565b505050565b6114b0848484610fe3565b6114bc848484846115c4565b6114fb576040517f08c379a00000000000000000000000000000000000000000000000000000000081526004016114f290612145565b60405180910390fd5b50505050565b606060405180602001604052806000815250905090565b606061152382610dd8565b611562576040517f08c379a0000000000000000000000000000000000000000000000000000000008152600401611559906122e5565b60405180910390fd5b600061156c611501565b9050600081511161158c57604051806020016040528060008152506115b7565b806115968461175b565b6040516020016115a792919061207d565b6040516020818303038152906040525b915050919050565b505050565b60006115e58473ffffffffffffffffffffffffffffffffffffffff16611908565b1561174e578373ffffffffffffffffffffffffffffffffffffffff1663150b7a0261160e610e44565b8786866040518563ffffffff1660e01b815260040161163094939291906120bc565b602060405180830381600087803b15801561164a57600080fd5b505af192505050801561167b57506040513d601f19601f820116820180604052508101906116789190611cc7565b60015b6116fe573d80600081146116ab576040519150601f19603f3d011682016040523d82523d6000602084013e6116b0565b606091505b506000815114156116f6576040517f08c379a00000000000000000000000000000000000000000000000000000000081526004016116ed90612145565b60405180910390fd5b805181602001fd5b63150b7a0260e01b7bffffffffffffffffffffffffffffffffffffffffffffffffffffffff1916817bffffffffffffffffffffffffffffffffffffffffffffffffffffffff191614915050611753565b600190505b949350505050565b606060008214156117a3576040518060400160405280600181526020017f30000000000000000000000000000000000000000000000000000000000000008152509050611903565b600082905060005b600082146117d55780806117be9061261e565b915050600a826117ce91906124a0565b91506117ab565b60008167ffffffffffffffff811115611817577f4e487b7100000000000000000000000000000000000000000000000000000000600052604160045260246000fd5b6040519080825280601f01601f1916602001820160405280156118495781602001600182028036833780820191505090505b5090505b600085146118fc5760018261186291906124d1565b9150600a856118719190612667565b603061187d919061244a565b60f81b8183815181106118b9577f4e487b7100000000000000000000000000000000000000000000000000000000600052603260045260246000fd5b60200101907effffffffffffffffffffffffffffffffffffffffffffffffffffffffffffff1916908160001a905350600a856118f591906124a0565b945061184d565b8093505050505b919050565b600080823b905060008111915050919050565b828054611927906125bb565b90600052602060002090601f0160209004810192826119495760008555611990565b82601f1061196257805160ff1916838001178555611990565b82800160010185558215611990579182015b8281111561198f578251825591602001919060010190611974565b5b50905061199d91906119a1565b5090565b5b808211156119ba5760008160009055506001016119a2565b5090565b60006119d16119cc846123a5565b612380565b9050828152602081018484840111156119e957600080fd5b6119f4848285612579565b509392505050565b6000611a0f611a0a846123d6565b612380565b905082815260208101848484011115611a2757600080fd5b611a32848285612579565b509392505050565b600081359050611a4981612c0c565b92915050565b600081359050611a5e81612c23565b92915050565b600081359050611a7381612c3a565b92915050565b600081519050611a8881612c3a565b92915050565b600082601f830112611a9f57600080fd5b8135611aaf8482602086016119be565b91505092915050565b600082601f830112611ac957600080fd5b8135611ad98482602086016119fc565b91505092915050565b600081359050611af181612c51565b92915050565b600060208284031215611b0957600080fd5b6000611b1784828501611a3a565b91505092915050565b60008060408385031215611b3357600080fd5b6000611b4185828601611a3a565b9250506020611b5285828601611a3a565b9150509250929050565b600080600060608486031215611b7157600080fd5b6000611b7f86828701611a3a565b9350506020611b9086828701611a3a565b9250506040611ba186828701611ae2565b9150509250925092565b60008060008060808587031215611bc157600080fd5b6000611bcf87828801611a3a565b9450506020611be087828801611a3a565b9350506040611bf187828801611ae2565b925050606085013567ffffffffffffffff811115611c0e57600080fd5b611c1a87828801611a8e565b91505092959194509250565b60008060408385031215611c3957600080fd5b6000611c4785828601611a3a565b9250506020611c5885828601611a4f565b9150509250929050565b60008060408385031215611c7557600080fd5b6000611c8385828601611a3a565b9250506020611c9485828601611ae2565b9150509250929050565b600060208284031215611cb057600080fd5b6000611cbe84828501611a64565b91505092915050565b600060208284031215611cd957600080fd5b6000611ce784828501611a79565b91505092915050565b600060208284031215611d0257600080fd5b600082013567ffffffffffffffff811115611d1c57600080fd5b611d2884828501611ab8565b91505092915050565b600060208284031215611d4357600080fd5b6000611d5184828501611ae2565b91505092915050565b611d6381612505565b82525050565b611d7281612517565b82525050565b6000611d8382612407565b611d8d818561241d565b9350611d9d818560208601612588565b611da681612754565b840191505092915050565b6000611dbc82612412565b611dc6818561242e565b9350611dd6818560208601612588565b611ddf81612754565b840191505092915050565b6000611df582612412565b611dff818561243f565b9350611e0f818560208601612588565b80840191505092915050565b6000611e2860328361242e565b9150611e3382612765565b604082019050919050565b6000611e4b601c8361242e565b9150611e56826127b4565b602082019050919050565b6000611e6e60248361242e565b9150611e79826127dd565b604082019050919050565b6000611e9160198361242e565b9150611e9c8261282c565b602082019050919050565b6000611eb4602c8361242e565b9150611ebf82612855565b604082019050919050565b6000611ed760388361242e565b9150611ee2826128a4565b604082019050919050565b6000611efa602a8361242e565b9150611f05826128f3565b604082019050919050565b6000611f1d60298361242e565b9150611f2882612942565b604082019050919050565b6000611f40602e8361242e565b9150611f4b82612991565b604082019050919050565b6000611f6360208361242e565b9150611f6e826129e0565b602082019050919050565b6000611f8660318361242e565b9150611f9182612a09565b604082019050919050565b6000611fa9602c8361242e565b9150611fb482612a58565b604082019050919050565b6000611fcc60298361242e565b9150611fd782612aa7565b604082019050919050565b6000611fef602f8361242e565b9150611ffa82612af6565b604082019050919050565b600061201260218361242e565b915061201d82612b45565b604082019050919050565b600061203560318361242e565b915061204082612b94565b604082019050919050565b600061205860208361242e565b915061206382612be3565b602082019050919050565b6120778161256f565b82525050565b60006120898285611dea565b91506120958284611dea565b91508190509392505050565b60006020820190506120b66000830184611d5a565b92915050565b60006080820190506120d16000830187611d5a565b6120de6020830186611d5a565b6120eb604083018561206e565b81810360608301526120fd8184611d78565b905095945050505050565b600060208201905061211d6000830184611d69565b92915050565b6000602082019050818103600083015261213d8184611db1565b905092915050565b6000602082019050818103600083015261215e81611e1b565b9050919050565b6000602082019050818103600083015261217e81611e3e565b9050919050565b6000602082019050818103600083015261219e81611e61565b9050919050565b600060208201905081810360008301526121be81611e84565b9050919050565b600060208201905081810360008301526121de81611ea7565b9050919050565b600060208201905081810360008301526121fe81611eca565b9050919050565b6000602082019050818103600083015261221e81611eed565b9050919050565b6000602082019050818103600083015261223e81611f10565b9050919050565b6000602082019050818103600083015261225e81611f33565b9050919050565b6000602082019050818103600083015261227e81611f56565b9050919050565b6000602082019050818103600083015261229e81611f79565b9050919050565b600060208201905081810360008301526122be81611f9c565b9050919050565b600060208201905081810360008301526122de81611fbf565b9050919050565b600060208201905081810360008301526122fe81611fe2565b9050919050565b6000602082019050818103600083015261231e81612005565b9050919050565b6000602082019050818103600083015261233e81612028565b9050919050565b6000602082019050818103600083015261235e8161204b565b9050919050565b600060208201905061237a600083018461206e565b92915050565b600061238a61239b565b905061239682826125ed565b919050565b6000604051905090565b600067ffffffffffffffff8211156123c0576123bf612725565b5b6123c982612754565b9050602081019050919050565b600067ffffffffffffffff8211156123f1576123f0612725565b5b6123fa82612754565b9050602081019050919050565b600081519050919050565b600081519050919050565b600082825260208201905092915050565b600082825260208201905092915050565b600081905092915050565b60006124558261256f565b91506124608361256f565b9250827fffffffffffffffffffffffffffffffffffffffffffffffffffffffffffffffff0382111561249557612494612698565b5b828201905092915050565b60006124ab8261256f565b91506124b68361256f565b9250826124c6576124c56126c7565b5b828204905092915050565b60006124dc8261256f565b91506124e78361256f565b9250828210156124fa576124f9612698565b5b828203905092915050565b60006125108261254f565b9050919050565b60008115159050919050565b60007fffffffff0000000000000000000000000000000000000000000000000000000082169050919050565b600073ffffffffffffffffffffffffffffffffffffffff82169050919050565b6000819050919050565b82818337600083830152505050565b60005b838110156125a657808201518184015260208101905061258b565b838111156125b5576000848401525b50505050565b600060028204905060018216806125d357607f821691505b602082108114156125e7576125e66126f6565b5b50919050565b6125f682612754565b810181811067ffffffffffffffff8211171561261557612614612725565b5b80604052505050565b60006126298261256f565b91507fffffffffffffffffffffffffffffffffffffffffffffffffffffffffffffffff82141561265c5761265b612698565b5b600182019050919050565b60006126728261256f565b915061267d8361256f565b92508261268d5761268c6126c7565b5b828206905092915050565b7f4e487b7100000000000000000000000000000000000000000000000000000000600052601160045260246000fd5b7f4e487b7100000000000000000000000000000000000000000000000000000000600052601260045260246000fd5b7f4e487b7100000000000000000000000000000000000000000000000000000000600052602260045260246000fd5b7f4e487b7100000000000000000000000000000000000000000000000000000000600052604160045260246000fd5b6000601f19601f8301169050919050565b7f4552433732313a207472616e7366657220746f206e6f6e20455243373231526560008201527f63656976657220696d706c656d656e7465720000000000000000000000000000602082015250565b7f4552433732313a20746f6b656e20616c7265616479206d696e74656400000000600082015250565b7f4552433732313a207472616e7366657220746f20746865207a65726f2061646460008201527f7265737300000000000000000000000000000000000000000000000000000000602082015250565b7f4552433732313a20617070726f766520746f2063616c6c657200000000000000600082015250565b7f4552433732313a206f70657261746f7220717565727920666f72206e6f6e657860008201527f697374656e7420746f6b656e0000000000000000000000000000000000000000602082015250565b7f4552433732313a20617070726f76652063616c6c6572206973206e6f74206f7760008201527f6e6572206e6f7220617070726f76656420666f7220616c6c0000000000000000602082015250565b7f4552433732313a2062616c616e636520717565727920666f7220746865207a6560008201527f726f206164647265737300000000000000000000000000000000000000000000602082015250565b7f4552433732313a206f776e657220717565727920666f72206e6f6e657869737460008201527f656e7420746f6b656e0000000000000000000000000000000000000000000000602082015250565b7f45524337323155524953746f726167653a2055524920736574206f66206e6f6e60008201527f6578697374656e7420746f6b656e000000000000000000000000000000000000602082015250565b7f4552433732313a206d696e7420746f20746865207a65726f2061646472657373600082015250565b7f45524337323155524953746f726167653a2055524920717565727920666f722060008201527f6e6f6e6578697374656e7420746f6b656e000000000000000000000000000000602082015250565b7f4552433732313a20617070726f76656420717565727920666f72206e6f6e657860008201527f697374656e7420746f6b656e0000000000000000000000000000000000000000602082015250565b7f4552433732313a207472616e73666572206f6620746f6b656e2074686174206960008201527f73206e6f74206f776e0000000000000000000000000000000000000000000000602082015250565b7f4552433732314d657461646174613a2055524920717565727920666f72206e6f60008201527f6e6578697374656e7420746f6b656e0000000000000000000000000000000000602082015250565b7f4552433732313a20617070726f76616c20746f2063757272656e74206f776e6560008201527f7200000000000000000000000000000000000000000000000000000000000000602082015250565b7f4552433732313a207472616e736665722063616c6c6572206973206e6f74206f60008201527f776e6572206e6f7220617070726f766564000000000000000000000000000000602082015250565b7f46726f6d2061646472657373206d75737420626520746f6b656e206f776e6572600082015250565b612c1581612505565b8114612c2057600080fd5b50565b612c2c81612517565b8114612c3757600080fd5b50565b612c4381612523565b8114612c4e57600080fd5b50565b612c5a8161256f565b8114612c6557600080fd5b5056fea26469706673582212206990af88650ffb8e4ea0ee91f840ac5fe6d9b27c452c2f335660ad8e32f502ec64736f6c63430008040033",
  "linkReferences": {},
  "deployedLinkReferences": {}
}