{
  "_format": "hh-sol-artifact-1",
  "contractName": "NFTMarket",
  "sourceName": "contracts/NFTMarket.sol",
  "abi": [
    {
      "inputs": [],
      "stateMutability": "nonpayable",
      "type": "constructor"
    },
    {
      "anonymous": false,
      "inputs": [
        {
          "indexed": true,
          "internalType": "uint256",
          "name": "itemId",
          "type": "uint256"
        },
        {
          "indexed": true,
          "internalType": "address",
          "name": "nftContract",
          "type": "address"
        },
        {
          "indexed": true,
          "internalType": "uint256",
          "name": "tokenId",
          "type": "uint256"
        },
        {
          "indexed": false,
          "internalType": "address",
          "name": "seller",
          "type": "address"
        },
        {
          "indexed": false,
          "internalType": "address",
          "name": "owner",
          "type": "address"
        },
        {
          "indexed": false,
          "internalType": "uint256",
          "name": "price",
          "type": "uint256"
        },
        {
          "indexed": false,
          "internalType": "bool",
          "name": "sold",
          "type": "bool"
        }
      ],
      "name": "MarketItemCreated",
      "type": "event"
    },
    {
      "anonymous": false,
      "inputs": [
        {
          "indexed": true,
          "internalType": "uint256",
          "name": "itemId",
          "type": "uint256"
        }
      ],
      "name": "MarketItemDeleted",
      "type": "event"
    },
    {
      "anonymous": false,
      "inputs": [
        {
          "indexed": true,
          "internalType": "uint256",
          "name": "itemId",
          "type": "uint256"
        }
      ],
      "name": "ProductListed",
      "type": "event"
    },
    {
      "inputs": [
        {
          "internalType": "address",
          "name": "nftContract",
          "type": "address"
        },
        {
          "internalType": "uint256",
          "name": "tokenId",
          "type": "uint256"
        },
        {
          "internalType": "uint256",
          "name": "price",
          "type": "uint256"
        }
      ],
      "name": "createMarketItem",
      "outputs": [],
      "stateMutability": "payable",
      "type": "function"
    },
    {
      "inputs": [
        {
          "internalType": "address",
          "name": "nftContract",
          "type": "address"
        },
        {
          "internalType": "uint256",
          "name": "itemId",
          "type": "uint256"
        }
      ],
      "name": "createMarketSale",
      "outputs": [],
      "stateMutability": "payable",
      "type": "function"
    },
    {
      "inputs": [
        {
          "internalType": "uint256",
          "name": "itemId",
          "type": "uint256"
        }
      ],
      "name": "deleteMarketItem",
      "outputs": [],
      "stateMutability": "payable",
      "type": "function"
    },
    {
      "inputs": [],
      "name": "fetchItemsCreated",
      "outputs": [
        {
          "components": [
            {
              "internalType": "uint256",
              "name": "itemId",
              "type": "uint256"
            },
            {
              "internalType": "address",
              "name": "nftContract",
              "type": "address"
            },
            {
              "internalType": "uint256",
              "name": "tokenId",
              "type": "uint256"
            },
            {
              "internalType": "address payable",
              "name": "seller",
              "type": "address"
            },
            {
              "internalType": "address payable",
              "name": "owner",
              "type": "address"
            },
            {
              "internalType": "uint256",
              "name": "price",
              "type": "uint256"
            },
            {
              "internalType": "bool",
              "name": "sold",
              "type": "bool"
            }
          ],
          "internalType": "struct NFTMarket.MarketItem[]",
          "name": "",
          "type": "tuple[]"
        }
      ],
      "stateMutability": "view",
      "type": "function"
    },
    {
      "inputs": [],
      "name": "fetchMarketItems",
      "outputs": [
        {
          "components": [
            {
              "internalType": "uint256",
              "name": "itemId",
              "type": "uint256"
            },
            {
              "internalType": "address",
              "name": "nftContract",
              "type": "address"
            },
            {
              "internalType": "uint256",
              "name": "tokenId",
              "type": "uint256"
            },
            {
              "internalType": "address payable",
              "name": "seller",
              "type": "address"
            },
            {
              "internalType": "address payable",
              "name": "owner",
              "type": "address"
            },
            {
              "internalType": "uint256",
              "name": "price",
              "type": "uint256"
            },
            {
              "internalType": "bool",
              "name": "sold",
              "type": "bool"
            }
          ],
          "internalType": "struct NFTMarket.MarketItem[]",
          "name": "",
          "type": "tuple[]"
        }
      ],
      "stateMutability": "view",
      "type": "function"
    },
    {
      "inputs": [],
      "name": "fetchMyNFTs",
      "outputs": [
        {
          "components": [
            {
              "internalType": "uint256",
              "name": "itemId",
              "type": "uint256"
            },
            {
              "internalType": "address",
              "name": "nftContract",
              "type": "address"
            },
            {
              "internalType": "uint256",
              "name": "tokenId",
              "type": "uint256"
            },
            {
              "internalType": "address payable",
              "name": "seller",
              "type": "address"
            },
            {
              "internalType": "address payable",
              "name": "owner",
              "type": "address"
            },
            {
              "internalType": "uint256",
              "name": "price",
              "type": "uint256"
            },
            {
              "internalType": "bool",
              "name": "sold",
              "type": "bool"
            }
          ],
          "internalType": "struct NFTMarket.MarketItem[]",
          "name": "",
          "type": "tuple[]"
        }
      ],
      "stateMutability": "view",
      "type": "function"
    },
    {
      "inputs": [
        {
          "internalType": "uint256",
          "name": "providedId",
          "type": "uint256"
        }
      ],
      "name": "fetchSpecificItem",
      "outputs": [
        {
          "internalType": "uint256",
          "name": "value",
          "type": "uint256"
        }
      ],
      "stateMutability": "view",
      "type": "function"
    },
    {
      "inputs": [],
      "name": "getListingPrice",
      "outputs": [
        {
          "internalType": "uint256",
          "name": "",
          "type": "uint256"
        }
      ],
      "stateMutability": "view",
      "type": "function"
    },
    {
      "inputs": [
        {
          "internalType": "address",
          "name": "nftContract",
          "type": "address"
        },
        {
          "internalType": "uint256",
          "name": "itemId",
          "type": "uint256"
        },
        {
          "internalType": "uint256",
          "name": "newPrice",
          "type": "uint256"
        }
      ],
      "name": "putItemToResell",
      "outputs": [],
      "stateMutability": "payable",
      "type": "function"
    },
    {
      "inputs": [
        {
          "internalType": "address",
          "name": "nftContract",
          "type": "address"
        },
        {
          "internalType": "uint256",
          "name": "tokenId",
          "type": "uint256"
        },
        {
          "internalType": "uint256",
          "name": "price",
          "type": "uint256"
        }
      ],
      "name": "sellMarketItem",
      "outputs": [],
      "stateMutability": "payable",
      "type": "function"
    },
    {
      "inputs": [
        {
          "internalType": "address",
          "name": "nftContract",
          "type": "address"
        },
        {
          "internalType": "uint256",
          "name": "itemId",
          "type": "uint256"
        }
      ],
      "name": "transferFrom",
      "outputs": [],
      "stateMutability": "payable",
      "type": "function"
    }
  ],
  "bytecode": "0x60806040526658d15e1762800060055534801561001b57600080fd5b50600160008190555033600460006101000a81548173ffffffffffffffffffffffffffffffffffffffff021916908373ffffffffffffffffffffffffffffffffffffffff1602179055506126c7806100746000396000f3fe60806040526004361061009c5760003560e01c806358eb2df51161006457806358eb2df51461015a5780635cd91d6c14610176578063619c19ac14610192578063a9c07145146101cf578063c23b139e146101eb578063f064c32e146102075761009c565b806301c6adc3146100a15780630f08efe0146100bd57806312e85585146100e8578063202e37401461011357806358271fff1461013e575b600080fd5b6100bb60048036038101906100b69190611d7f565b610232565b005b3480156100c957600080fd5b506100d261039b565b6040516100df9190612157565b60405180910390f35b3480156100f457600080fd5b506100fd6106b1565b60405161010a9190612299565b60405180910390f35b34801561011f57600080fd5b506101286106bb565b6040516101359190612157565b60405180910390f35b61015860048036038101906101539190611dbb565b610a55565b005b610174600480360381019061016f9190611dbb565b610dd6565b005b610190600480360381019061018b9190611dbb565b61113a565b005b34801561019e57600080fd5b506101b960048036038101906101b49190611e0a565b61145a565b6040516101c69190612299565b60405180910390f35b6101e960048036038101906101e49190611e0a565b61146a565b005b61020560048036038101906102009190611d7f565b611601565b005b34801561021357600080fd5b5061021c6118ba565b6040516102299190612157565b60405180910390f35b60026000541415610278576040517f08c379a000000000000000000000000000000000000000000000000000000000815260040161026f90612259565b60405180910390fd5b6002600081905550600060066000838152602001908152602001600020600201549050306006600084815260200190815260200160002060040160006101000a81548173ffffffffffffffffffffffffffffffffffffffff021916908373ffffffffffffffffffffffffffffffffffffffff16021790555060006006600084815260200190815260200160002060060160006101000a81548160ff0219169083151502179055508273ffffffffffffffffffffffffffffffffffffffff166323b872dd3330846040518463ffffffff1660e01b815260040161035c939291906120db565b600060405180830381600087803b15801561037657600080fd5b505af115801561038a573d6000803e3d6000fd5b505050505060016000819055505050565b606060006103a96001611c54565b905060006103b76002611c54565b6103c16001611c54565b6103cb9190612354565b90506000808267ffffffffffffffff811115610410577f4e487b7100000000000000000000000000000000000000000000000000000000600052604160045260246000fd5b60405190808252806020026020018201604052801561044957816020015b610436611cd4565b81526020019060019003908161042e5790505b50905060005b848110156106a657600073ffffffffffffffffffffffffffffffffffffffff166006600060018461048091906122fe565b815260200190815260200160002060040160009054906101000a900473ffffffffffffffffffffffffffffffffffffffff1673ffffffffffffffffffffffffffffffffffffffff1614156106935760006001826104dd91906122fe565b90506000600660008381526020019081526020016000209050806040518060e0016040529081600082015481526020016001820160009054906101000a900473ffffffffffffffffffffffffffffffffffffffff1673ffffffffffffffffffffffffffffffffffffffff1673ffffffffffffffffffffffffffffffffffffffff168152602001600282015481526020016003820160009054906101000a900473ffffffffffffffffffffffffffffffffffffffff1673ffffffffffffffffffffffffffffffffffffffff1673ffffffffffffffffffffffffffffffffffffffff1681526020016004820160009054906101000a900473ffffffffffffffffffffffffffffffffffffffff1673ffffffffffffffffffffffffffffffffffffffff1673ffffffffffffffffffffffffffffffffffffffff168152602001600582015481526020016006820160009054906101000a900460ff161515151581525050848681518110610676577f4e487b7100000000000000000000000000000000000000000000000000000000600052603260045260246000fd5b602002602001018190525060018561068e91906122fe565b945050505b808061069e906123e2565b91505061044f565b508094505050505090565b6000600554905090565b606060006106c96001611c54565b905060008060005b83811015610772573373ffffffffffffffffffffffffffffffffffffffff166006600060018461070191906122fe565b815260200190815260200160002060040160009054906101000a900473ffffffffffffffffffffffffffffffffffffffff1673ffffffffffffffffffffffffffffffffffffffff16141561075f5760018361075c91906122fe565b92505b808061076a906123e2565b9150506106d1565b5060008267ffffffffffffffff8111156107b5577f4e487b7100000000000000000000000000000000000000000000000000000000600052604160045260246000fd5b6040519080825280602002602001820160405280156107ee57816020015b6107db611cd4565b8152602001906001900390816107d35790505b50905060005b84811015610a4a573373ffffffffffffffffffffffffffffffffffffffff166006600060018461082491906122fe565b815260200190815260200160002060040160009054906101000a900473ffffffffffffffffffffffffffffffffffffffff1673ffffffffffffffffffffffffffffffffffffffff161415610a3757600060018261088191906122fe565b90506000600660008381526020019081526020016000209050806040518060e0016040529081600082015481526020016001820160009054906101000a900473ffffffffffffffffffffffffffffffffffffffff1673ffffffffffffffffffffffffffffffffffffffff1673ffffffffffffffffffffffffffffffffffffffff168152602001600282015481526020016003820160009054906101000a900473ffffffffffffffffffffffffffffffffffffffff1673ffffffffffffffffffffffffffffffffffffffff1673ffffffffffffffffffffffffffffffffffffffff1681526020016004820160009054906101000a900473ffffffffffffffffffffffffffffffffffffffff1673ffffffffffffffffffffffffffffffffffffffff1673ffffffffffffffffffffffffffffffffffffffff168152602001600582015481526020016006820160009054906101000a900460ff161515151581525050848681518110610a1a577f4e487b7100000000000000000000000000000000000000000000000000000000600052603260045260246000fd5b6020026020010181905250600185610a3291906122fe565b945050505b8080610a42906123e2565b9150506107f4565b508094505050505090565b60026000541415610a9b576040517f08c379a0000000000000000000000000000000000000000000000000000000008152600401610a9290612259565b60405180910390fd5b6002600081905550813373ffffffffffffffffffffffffffffffffffffffff166006600083815260200190815260200160002060040160009054906101000a900473ffffffffffffffffffffffffffffffffffffffff1673ffffffffffffffffffffffffffffffffffffffff1614610b48576040517f08c379a0000000000000000000000000000000000000000000000000000000008152600401610b3f90612219565b60405180910390fd5b60006006600085815260200190815260200160002060020154905060008311610ba6576040517f08c379a0000000000000000000000000000000000000000000000000000000008152600401610b9d90612279565b60405180910390fd5b6005543414610bea576040517f08c379a0000000000000000000000000000000000000000000000000000000008152600401610be190612239565b60405180910390fd5b60008590508073ffffffffffffffffffffffffffffffffffffffff1663f5537ede3330856040518463ffffffff1660e01b8152600401610c2c939291906120db565b600060405180830381600087803b158015610c4657600080fd5b505af1158015610c5a573d6000803e3d6000fd5b5050505060006006600087815260200190815260200160002060040160009054906101000a900473ffffffffffffffffffffffffffffffffffffffff16905060006006600088815260200190815260200160002060040160006101000a81548173ffffffffffffffffffffffffffffffffffffffff021916908373ffffffffffffffffffffffffffffffffffffffff160217905550806006600088815260200190815260200160002060030160006101000a81548173ffffffffffffffffffffffffffffffffffffffff021916908373ffffffffffffffffffffffffffffffffffffffff16021790555084600660008881526020019081526020016000206005018190555060006006600088815260200190815260200160002060060160006101000a81548160ff021916908315150217905550610d986002611c62565b857f221866c21613d6f0d77d42f9309b122a25deed1bc186cff9c2f1ddafc52c34f660405160405180910390a2505050506001600081905550505050565b60026000541415610e1c576040517f08c379a0000000000000000000000000000000000000000000000000000000008152600401610e1390612259565b60405180910390fd5b600260008190555060008111610e67576040517f08c379a0000000000000000000000000000000000000000000000000000000008152600401610e5e906121d9565b60405180910390fd5b6005543414610eab576040517f08c379a0000000000000000000000000000000000000000000000000000000008152600401610ea2906121f9565b60405180910390fd5b610eb56001611cbe565b6000610ec16001611c54565b90506040518060e001604052808281526020018573ffffffffffffffffffffffffffffffffffffffff1681526020018481526020013373ffffffffffffffffffffffffffffffffffffffff168152602001600073ffffffffffffffffffffffffffffffffffffffff16815260200183815260200160001515815250600660008381526020019081526020016000206000820151816000015560208201518160010160006101000a81548173ffffffffffffffffffffffffffffffffffffffff021916908373ffffffffffffffffffffffffffffffffffffffff1602179055506040820151816002015560608201518160030160006101000a81548173ffffffffffffffffffffffffffffffffffffffff021916908373ffffffffffffffffffffffffffffffffffffffff16021790555060808201518160040160006101000a81548173ffffffffffffffffffffffffffffffffffffffff021916908373ffffffffffffffffffffffffffffffffffffffff16021790555060a0820151816005015560c08201518160060160006101000a81548160ff0219169083151502179055509050508373ffffffffffffffffffffffffffffffffffffffff166323b872dd3330866040518463ffffffff1660e01b81526004016110a2939291906120db565b600060405180830381600087803b1580156110bc57600080fd5b505af11580156110d0573d6000803e3d6000fd5b50505050828473ffffffffffffffffffffffffffffffffffffffff16827f045dfa01dcba2b36aba1d3dc4a874f4b0c5d2fbeb8d2c4b34a7d88c8d8f929d13360008760006040516111249493929190612112565b60405180910390a4506001600081905550505050565b60026000541415611180576040517f08c379a000000000000000000000000000000000000000000000000000000000815260040161117790612259565b60405180910390fd5b6002600081905550600081116111cb576040517f08c379a00000000000000000000000000000000000000000000000000000000081526004016111c2906121d9565b60405180910390fd5b6111d56001611cbe565b60006111e16001611c54565b90506040518060e001604052808281526020018573ffffffffffffffffffffffffffffffffffffffff1681526020018481526020013373ffffffffffffffffffffffffffffffffffffffff168152602001600073ffffffffffffffffffffffffffffffffffffffff16815260200183815260200160001515815250600660008381526020019081526020016000206000820151816000015560208201518160010160006101000a81548173ffffffffffffffffffffffffffffffffffffffff021916908373ffffffffffffffffffffffffffffffffffffffff1602179055506040820151816002015560608201518160030160006101000a81548173ffffffffffffffffffffffffffffffffffffffff021916908373ffffffffffffffffffffffffffffffffffffffff16021790555060808201518160040160006101000a81548173ffffffffffffffffffffffffffffffffffffffff021916908373ffffffffffffffffffffffffffffffffffffffff16021790555060a0820151816005015560c08201518160060160006101000a81548160ff0219169083151502179055509050508373ffffffffffffffffffffffffffffffffffffffff166323b872dd3330866040518463ffffffff1660e01b81526004016113c2939291906120db565b600060405180830381600087803b1580156113dc57600080fd5b505af11580156113f0573d6000803e3d6000fd5b50505050828473ffffffffffffffffffffffffffffffffffffffff16827f045dfa01dcba2b36aba1d3dc4a874f4b0c5d2fbeb8d2c4b34a7d88c8d8f929d13360008760006040516114449493929190612112565b60405180910390a4506001600081905550505050565b6000806001905080915050919050565b803073ffffffffffffffffffffffffffffffffffffffff166006600083815260200190815260200160002060040160009054906101000a900473ffffffffffffffffffffffffffffffffffffffff1673ffffffffffffffffffffffffffffffffffffffff161461150f576040517f08c379a0000000000000000000000000000000000000000000000000000000008152600401611506906121b9565b60405180910390fd5b600660008381526020019081526020016000206000808201600090556001820160006101000a81549073ffffffffffffffffffffffffffffffffffffffff021916905560028201600090556003820160006101000a81549073ffffffffffffffffffffffffffffffffffffffff02191690556004820160006101000a81549073ffffffffffffffffffffffffffffffffffffffff021916905560058201600090556006820160006101000a81549060ff021916905550506115d06003611cbe565b817fb4fe5f359651a837070fea1e3502d1a5f6213e7c67cf6d3f92aa833d44704e6960405160405180910390a25050565b60026000541415611647576040517f08c379a000000000000000000000000000000000000000000000000000000000815260040161163e90612259565b60405180910390fd5b60026000819055506000600660008381526020019081526020016000206005015490506000600660008481526020019081526020016000206002015490508134146116c7576040517f08c379a00000000000000000000000000000000000000000000000000000000081526004016116be90612179565b60405180910390fd5b6006600084815260200190815260200160002060030160009054906101000a900473ffffffffffffffffffffffffffffffffffffffff1673ffffffffffffffffffffffffffffffffffffffff166108fc349081150290604051600060405180830381858888f19350505050158015611743573d6000803e3d6000fd5b508373ffffffffffffffffffffffffffffffffffffffff166323b872dd3033846040518463ffffffff1660e01b8152600401611781939291906120db565b600060405180830381600087803b15801561179b57600080fd5b505af11580156117af573d6000803e3d6000fd5b50505050336006600085815260200190815260200160002060040160006101000a81548173ffffffffffffffffffffffffffffffffffffffff021916908373ffffffffffffffffffffffffffffffffffffffff16021790555060016006600085815260200190815260200160002060060160006101000a81548160ff0219169083151502179055506118416002611cbe565b600460009054906101000a900473ffffffffffffffffffffffffffffffffffffffff1673ffffffffffffffffffffffffffffffffffffffff166108fc6005549081150290604051600060405180830381858888f193505050501580156118ab573d6000803e3d6000fd5b50505060016000819055505050565b606060006118c86001611c54565b905060008060005b83811015611971573373ffffffffffffffffffffffffffffffffffffffff166006600060018461190091906122fe565b815260200190815260200160002060030160009054906101000a900473ffffffffffffffffffffffffffffffffffffffff1673ffffffffffffffffffffffffffffffffffffffff16141561195e5760018361195b91906122fe565b92505b8080611969906123e2565b9150506118d0565b5060008267ffffffffffffffff8111156119b4577f4e487b7100000000000000000000000000000000000000000000000000000000600052604160045260246000fd5b6040519080825280602002602001820160405280156119ed57816020015b6119da611cd4565b8152602001906001900390816119d25790505b50905060005b84811015611c49573373ffffffffffffffffffffffffffffffffffffffff1660066000600184611a2391906122fe565b815260200190815260200160002060030160009054906101000a900473ffffffffffffffffffffffffffffffffffffffff1673ffffffffffffffffffffffffffffffffffffffff161415611c36576000600182611a8091906122fe565b90506000600660008381526020019081526020016000209050806040518060e0016040529081600082015481526020016001820160009054906101000a900473ffffffffffffffffffffffffffffffffffffffff1673ffffffffffffffffffffffffffffffffffffffff1673ffffffffffffffffffffffffffffffffffffffff168152602001600282015481526020016003820160009054906101000a900473ffffffffffffffffffffffffffffffffffffffff1673ffffffffffffffffffffffffffffffffffffffff1673ffffffffffffffffffffffffffffffffffffffff1681526020016004820160009054906101000a900473ffffffffffffffffffffffffffffffffffffffff1673ffffffffffffffffffffffffffffffffffffffff1673ffffffffffffffffffffffffffffffffffffffff168152602001600582015481526020016006820160009054906101000a900460ff161515151581525050848681518110611c19577f4e487b7100000000000000000000000000000000000000000000000000000000600052603260045260246000fd5b6020026020010181905250600185611c3191906122fe565b945050505b8080611c41906123e2565b9150506119f3565b508094505050505090565b600081600001549050919050565b60008160000154905060008111611cae576040517f08c379a0000000000000000000000000000000000000000000000000000000008152600401611ca590612199565b60405180910390fd5b6001810382600001819055505050565b6001816000016000828254019250508190555050565b6040518060e0016040528060008152602001600073ffffffffffffffffffffffffffffffffffffffff16815260200160008152602001600073ffffffffffffffffffffffffffffffffffffffff168152602001600073ffffffffffffffffffffffffffffffffffffffff168152602001600081526020016000151581525090565b600081359050611d6481612663565b92915050565b600081359050611d798161267a565b92915050565b60008060408385031215611d9257600080fd5b6000611da085828601611d55565b9250506020611db185828601611d6a565b9150509250929050565b600080600060608486031215611dd057600080fd5b6000611dde86828701611d55565b9350506020611def86828701611d6a565b9250506040611e0086828701611d6a565b9150509250925092565b600060208284031215611e1c57600080fd5b6000611e2a84828501611d6a565b91505092915050565b6000611e3f838361202f565b60e08301905092915050565b611e548161239a565b82525050565b611e6381612388565b82525050565b611e7281612388565b82525050565b6000611e83826122c4565b611e8d81856122dc565b9350611e98836122b4565b8060005b83811015611ec9578151611eb08882611e33565b9750611ebb836122cf565b925050600181019050611e9c565b5085935050505092915050565b611edf816123ac565b82525050565b611eee816123ac565b82525050565b6000611f01601d836122ed565b9150611f0c8261245a565b602082019050919050565b6000611f24601b836122ed565b9150611f2f82612483565b602082019050919050565b6000611f476032836122ed565b9150611f52826124ac565b604082019050919050565b6000611f6a601d836122ed565b9150611f75826124fb565b602082019050919050565b6000611f8d6028836122ed565b9150611f9882612524565b604082019050919050565b6000611fb06028836122ed565b9150611fbb82612573565b604082019050919050565b6000611fd36024836122ed565b9150611fde826125c2565b604082019050919050565b6000611ff6601f836122ed565b915061200182612611565b602082019050919050565b6000612019601c836122ed565b91506120248261263a565b602082019050919050565b60e08201600082015161204560008501826120bd565b5060208201516120586020850182611e5a565b50604082015161206b60408501826120bd565b50606082015161207e6060850182611e4b565b5060808201516120916080850182611e4b565b5060a08201516120a460a08501826120bd565b5060c08201516120b760c0850182611ed6565b50505050565b6120c6816123d8565b82525050565b6120d5816123d8565b82525050565b60006060820190506120f06000830186611e69565b6120fd6020830185611e69565b61210a60408301846120cc565b949350505050565b60006080820190506121276000830187611e69565b6121346020830186611e69565b61214160408301856120cc565b61214e6060830184611ee5565b95945050505050565b600060208201905081810360008301526121718184611e78565b905092915050565b6000602082019050818103600083015261219281611ef4565b9050919050565b600060208201905081810360008301526121b281611f17565b9050919050565b600060208201905081810360008301526121d281611f3a565b9050919050565b600060208201905081810360008301526121f281611f5d565b9050919050565b6000602082019050818103600083015261221281611f80565b9050919050565b6000602082019050818103600083015261223281611fa3565b9050919050565b6000602082019050818103600083015261225281611fc6565b9050919050565b6000602082019050818103600083015261227281611fe9565b9050919050565b600060208201905081810360008301526122928161200c565b9050919050565b60006020820190506122ae60008301846120cc565b92915050565b6000819050602082019050919050565b600081519050919050565b6000602082019050919050565b600082825260208201905092915050565b600082825260208201905092915050565b6000612309826123d8565b9150612314836123d8565b9250827fffffffffffffffffffffffffffffffffffffffffffffffffffffffffffffffff038211156123495761234861242b565b5b828201905092915050565b600061235f826123d8565b915061236a836123d8565b92508282101561237d5761237c61242b565b5b828203905092915050565b6000612393826123b8565b9050919050565b60006123a5826123b8565b9050919050565b60008115159050919050565b600073ffffffffffffffffffffffffffffffffffffffff82169050919050565b6000819050919050565b60006123ed826123d8565b91507fffffffffffffffffffffffffffffffffffffffffffffffffffffffffffffffff8214156124205761241f61242b565b5b600182019050919050565b7f4e487b7100000000000000000000000000000000000000000000000000000000600052601160045260246000fd5b7f456e766965206f2076616c6f7220636572746f20646120636f6d707261000000600082015250565b7f436f756e7465723a2064656372656d656e74206f766572666c6f770000000000600082015250565b7f4f6e6c792070726f64756374206f72206d61726b6574206f776e65722063616e60008201527f20646f2074686973206f7065726174696f6e0000000000000000000000000000602082015250565b7f507265636f2074656d2071756520736572206d61696f72207175652030000000600082015250565b7f507265636f2074656d207175652073657220696775616c20616f2076616c6f7260008201527f206c69737461646f000000000000000000000000000000000000000000000000602082015250565b7f4f6e6c792070726f64756374206f776e65722063616e20646f2074686973206f60008201527f7065726174696f6e000000000000000000000000000000000000000000000000602082015250565b7f5072696365206d75737420626520657175616c20746f206c697374696e67207060008201527f7269636500000000000000000000000000000000000000000000000000000000602082015250565b7f5265656e7472616e637947756172643a207265656e7472616e742063616c6c00600082015250565b7f5072696365206d757374206265206174206c6561737420312077656900000000600082015250565b61266c81612388565b811461267757600080fd5b50565b612683816123d8565b811461268e57600080fd5b5056fea26469706673582212209d71e812c8211ed7d0fddabc976021ec7cbbe7eaa41207c991f82a25b97a66cd64736f6c63430008040033",
  "linkReferences": {},
  "deployedLinkReferences": {}
}