{
  "_format": "hh-sol-artifact-1",
  "contractName": "NFTMarket",
  "sourceName": "contracts/NFTMarket.sol",
  "abi": [
    {
      "inputs": [],
      "stateMutability": "nonpayable",
      "type": "constructor"
    },
    {
      "anonymous": false,
      "inputs": [
        {
          "indexed": true,
          "internalType": "uint256",
          "name": "itemId",
          "type": "uint256"
        },
        {
          "indexed": true,
          "internalType": "address",
          "name": "nftContract",
          "type": "address"
        },
        {
          "indexed": true,
          "internalType": "uint256",
          "name": "tokenId",
          "type": "uint256"
        },
        {
          "indexed": false,
          "internalType": "address",
          "name": "seller",
          "type": "address"
        },
        {
          "indexed": false,
          "internalType": "address",
          "name": "owner",
          "type": "address"
        },
        {
          "indexed": false,
          "internalType": "uint256",
          "name": "price",
          "type": "uint256"
        },
        {
          "indexed": false,
          "internalType": "bool",
          "name": "sold",
          "type": "bool"
        }
      ],
      "name": "MarketItemCreated",
      "type": "event"
    },
    {
      "inputs": [
        {
          "internalType": "address",
          "name": "nftContract",
          "type": "address"
        },
        {
          "internalType": "uint256",
          "name": "tokenId",
          "type": "uint256"
        },
        {
          "internalType": "uint256",
          "name": "price",
          "type": "uint256"
        }
      ],
      "name": "createMarketItem",
      "outputs": [],
      "stateMutability": "payable",
      "type": "function"
    },
    {
      "inputs": [
        {
          "internalType": "address",
          "name": "nftContract",
          "type": "address"
        },
        {
          "internalType": "uint256",
          "name": "itemId",
          "type": "uint256"
        }
      ],
      "name": "createMarketSale",
      "outputs": [],
      "stateMutability": "payable",
      "type": "function"
    },
    {
      "inputs": [],
      "name": "fetchItemsCreated",
      "outputs": [
        {
          "components": [
            {
              "internalType": "uint256",
              "name": "itemId",
              "type": "uint256"
            },
            {
              "internalType": "address",
              "name": "nftContract",
              "type": "address"
            },
            {
              "internalType": "uint256",
              "name": "tokenId",
              "type": "uint256"
            },
            {
              "internalType": "address payable",
              "name": "seller",
              "type": "address"
            },
            {
              "internalType": "address payable",
              "name": "owner",
              "type": "address"
            },
            {
              "internalType": "uint256",
              "name": "price",
              "type": "uint256"
            },
            {
              "internalType": "bool",
              "name": "sold",
              "type": "bool"
            }
          ],
          "internalType": "struct NFTMarket.MarketItem[]",
          "name": "",
          "type": "tuple[]"
        }
      ],
      "stateMutability": "view",
      "type": "function"
    },
    {
      "inputs": [],
      "name": "fetchMarketItems",
      "outputs": [
        {
          "components": [
            {
              "internalType": "uint256",
              "name": "itemId",
              "type": "uint256"
            },
            {
              "internalType": "address",
              "name": "nftContract",
              "type": "address"
            },
            {
              "internalType": "uint256",
              "name": "tokenId",
              "type": "uint256"
            },
            {
              "internalType": "address payable",
              "name": "seller",
              "type": "address"
            },
            {
              "internalType": "address payable",
              "name": "owner",
              "type": "address"
            },
            {
              "internalType": "uint256",
              "name": "price",
              "type": "uint256"
            },
            {
              "internalType": "bool",
              "name": "sold",
              "type": "bool"
            }
          ],
          "internalType": "struct NFTMarket.MarketItem[]",
          "name": "",
          "type": "tuple[]"
        }
      ],
      "stateMutability": "view",
      "type": "function"
    },
    {
      "inputs": [],
      "name": "fetchMyNFTs",
      "outputs": [
        {
          "components": [
            {
              "internalType": "uint256",
              "name": "itemId",
              "type": "uint256"
            },
            {
              "internalType": "address",
              "name": "nftContract",
              "type": "address"
            },
            {
              "internalType": "uint256",
              "name": "tokenId",
              "type": "uint256"
            },
            {
              "internalType": "address payable",
              "name": "seller",
              "type": "address"
            },
            {
              "internalType": "address payable",
              "name": "owner",
              "type": "address"
            },
            {
              "internalType": "uint256",
              "name": "price",
              "type": "uint256"
            },
            {
              "internalType": "bool",
              "name": "sold",
              "type": "bool"
            }
          ],
          "internalType": "struct NFTMarket.MarketItem[]",
          "name": "",
          "type": "tuple[]"
        }
      ],
      "stateMutability": "view",
      "type": "function"
    },
    {
      "inputs": [
        {
          "internalType": "uint256",
          "name": "providedId",
          "type": "uint256"
        }
      ],
      "name": "fetchSpecificItem",
      "outputs": [
        {
          "internalType": "uint256",
          "name": "value",
          "type": "uint256"
        }
      ],
      "stateMutability": "view",
      "type": "function"
    },
    {
      "inputs": [],
      "name": "getListingPrice",
      "outputs": [
        {
          "internalType": "uint256",
          "name": "",
          "type": "uint256"
        }
      ],
      "stateMutability": "view",
      "type": "function"
    },
    {
      "inputs": [
        {
          "internalType": "address",
          "name": "nftContract",
          "type": "address"
        },
        {
          "internalType": "uint256",
          "name": "itemId",
          "type": "uint256"
        },
        {
          "internalType": "uint256",
          "name": "newPrice",
          "type": "uint256"
        }
      ],
      "name": "putItemToResell",
      "outputs": [],
      "stateMutability": "payable",
      "type": "function"
    },
    {
      "inputs": [
        {
          "internalType": "address",
          "name": "nftContract",
          "type": "address"
        },
        {
          "internalType": "uint256",
          "name": "tokenId",
          "type": "uint256"
        },
        {
          "internalType": "uint256",
          "name": "price",
          "type": "uint256"
        }
      ],
      "name": "sellMarketItem",
      "outputs": [],
      "stateMutability": "payable",
      "type": "function"
    },
    {
      "inputs": [
        {
          "internalType": "address",
          "name": "nftContract",
          "type": "address"
        },
        {
          "internalType": "uint256",
          "name": "itemId",
          "type": "uint256"
        }
      ],
      "name": "transferFrom",
      "outputs": [],
      "stateMutability": "payable",
      "type": "function"
    }
  ],
  "bytecode": "0x60806040526658d15e1762800060045534801561001b57600080fd5b50600160008190555033600360006101000a81548173ffffffffffffffffffffffffffffffffffffffff021916908373ffffffffffffffffffffffffffffffffffffffff1602179055506122bc806100746000396000f3fe6080604052600436106100915760003560e01c806358eb2df51161005957806358eb2df51461014f5780635cd91d6c1461016b578063619c19ac14610187578063c23b139e146101c4578063f064c32e146101e057610091565b806301c6adc3146100965780630f08efe0146100b257806312e85585146100dd578063202e37401461010857806358271fff14610133575b600080fd5b6100b060048036038101906100ab9190611b70565b61020b565b005b3480156100be57600080fd5b506100c7610374565b6040516100d49190611ebc565b60405180910390f35b3480156100e957600080fd5b506100f261068a565b6040516100ff9190611f7e565b60405180910390f35b34801561011457600080fd5b5061011d610694565b60405161012a9190611ebc565b60405180910390f35b61014d60048036038101906101489190611bac565b610a2e565b005b61016960048036038101906101649190611bac565b610dba565b005b61018560048036038101906101809190611bac565b61111e565b005b34801561019357600080fd5b506101ae60048036038101906101a99190611bfb565b61143e565b6040516101bb9190611f7e565b60405180910390f35b6101de60048036038101906101d99190611b70565b61144e565b005b3480156101ec57600080fd5b506101f5611707565b6040516102029190611ebc565b60405180910390f35b60026000541415610251576040517f08c379a000000000000000000000000000000000000000000000000000000000815260040161024890611f5e565b60405180910390fd5b6002600081905550600060056000838152602001908152602001600020600201549050306005600084815260200190815260200160002060040160006101000a81548173ffffffffffffffffffffffffffffffffffffffff021916908373ffffffffffffffffffffffffffffffffffffffff16021790555060006005600084815260200190815260200160002060060160006101000a81548160ff0219169083151502179055508273ffffffffffffffffffffffffffffffffffffffff166323b872dd3330846040518463ffffffff1660e01b815260040161033593929190611e40565b600060405180830381600087803b15801561034f57600080fd5b505af1158015610363573d6000803e3d6000fd5b505050505060016000819055505050565b606060006103826001611aa1565b905060006103906002611aa1565b61039a6001611aa1565b6103a49190612039565b90506000808267ffffffffffffffff8111156103e9577f4e487b7100000000000000000000000000000000000000000000000000000000600052604160045260246000fd5b60405190808252806020026020018201604052801561042257816020015b61040f611ac5565b8152602001906001900390816104075790505b50905060005b8481101561067f57600073ffffffffffffffffffffffffffffffffffffffff16600560006001846104599190611fe3565b815260200190815260200160002060040160009054906101000a900473ffffffffffffffffffffffffffffffffffffffff1673ffffffffffffffffffffffffffffffffffffffff16141561066c5760006001826104b69190611fe3565b90506000600560008381526020019081526020016000209050806040518060e0016040529081600082015481526020016001820160009054906101000a900473ffffffffffffffffffffffffffffffffffffffff1673ffffffffffffffffffffffffffffffffffffffff1673ffffffffffffffffffffffffffffffffffffffff168152602001600282015481526020016003820160009054906101000a900473ffffffffffffffffffffffffffffffffffffffff1673ffffffffffffffffffffffffffffffffffffffff1673ffffffffffffffffffffffffffffffffffffffff1681526020016004820160009054906101000a900473ffffffffffffffffffffffffffffffffffffffff1673ffffffffffffffffffffffffffffffffffffffff1673ffffffffffffffffffffffffffffffffffffffff168152602001600582015481526020016006820160009054906101000a900460ff16151515158152505084868151811061064f577f4e487b7100000000000000000000000000000000000000000000000000000000600052603260045260246000fd5b60200260200101819052506001856106679190611fe3565b945050505b8080610677906120c7565b915050610428565b508094505050505090565b6000600454905090565b606060006106a26001611aa1565b905060008060005b8381101561074b573373ffffffffffffffffffffffffffffffffffffffff16600560006001846106da9190611fe3565b815260200190815260200160002060040160009054906101000a900473ffffffffffffffffffffffffffffffffffffffff1673ffffffffffffffffffffffffffffffffffffffff161415610738576001836107359190611fe3565b92505b8080610743906120c7565b9150506106aa565b5060008267ffffffffffffffff81111561078e577f4e487b7100000000000000000000000000000000000000000000000000000000600052604160045260246000fd5b6040519080825280602002602001820160405280156107c757816020015b6107b4611ac5565b8152602001906001900390816107ac5790505b50905060005b84811015610a23573373ffffffffffffffffffffffffffffffffffffffff16600560006001846107fd9190611fe3565b815260200190815260200160002060040160009054906101000a900473ffffffffffffffffffffffffffffffffffffffff1673ffffffffffffffffffffffffffffffffffffffff161415610a1057600060018261085a9190611fe3565b90506000600560008381526020019081526020016000209050806040518060e0016040529081600082015481526020016001820160009054906101000a900473ffffffffffffffffffffffffffffffffffffffff1673ffffffffffffffffffffffffffffffffffffffff1673ffffffffffffffffffffffffffffffffffffffff168152602001600282015481526020016003820160009054906101000a900473ffffffffffffffffffffffffffffffffffffffff1673ffffffffffffffffffffffffffffffffffffffff1673ffffffffffffffffffffffffffffffffffffffff1681526020016004820160009054906101000a900473ffffffffffffffffffffffffffffffffffffffff1673ffffffffffffffffffffffffffffffffffffffff1673ffffffffffffffffffffffffffffffffffffffff168152602001600582015481526020016006820160009054906101000a900460ff1615151515815250508486815181106109f3577f4e487b7100000000000000000000000000000000000000000000000000000000600052603260045260246000fd5b6020026020010181905250600185610a0b9190611fe3565b945050505b8080610a1b906120c7565b9150506107cd565b508094505050505090565b60026000541415610a74576040517f08c379a0000000000000000000000000000000000000000000000000000000008152600401610a6b90611f5e565b60405180910390fd5b6002600081905550813373ffffffffffffffffffffffffffffffffffffffff166005600083815260200190815260200160002060040160009054906101000a900473ffffffffffffffffffffffffffffffffffffffff1673ffffffffffffffffffffffffffffffffffffffff1614610b21576040517f08c379a0000000000000000000000000000000000000000000000000000000008152600401610b1890611f3e565b60405180910390fd5b6000600560008581526020019081526020016000206002015490506040518060e001604052808581526020018673ffffffffffffffffffffffffffffffffffffffff1681526020018281526020013373ffffffffffffffffffffffffffffffffffffffff168152602001600073ffffffffffffffffffffffffffffffffffffffff16815260200184815260200160001515815250600560008681526020019081526020016000206000820151816000015560208201518160010160006101000a81548173ffffffffffffffffffffffffffffffffffffffff021916908373ffffffffffffffffffffffffffffffffffffffff1602179055506040820151816002015560608201518160030160006101000a81548173ffffffffffffffffffffffffffffffffffffffff021916908373ffffffffffffffffffffffffffffffffffffffff16021790555060808201518160040160006101000a81548173ffffffffffffffffffffffffffffffffffffffff021916908373ffffffffffffffffffffffffffffffffffffffff16021790555060a0820151816005015560c08201518160060160006101000a81548160ff02191690831515021790555090505060008590508073ffffffffffffffffffffffffffffffffffffffff1663f5537ede3330856040518463ffffffff1660e01b8152600401610d2093929190611e40565b600060405180830381600087803b158015610d3a57600080fd5b505af1158015610d4e573d6000803e3d6000fd5b50505050818673ffffffffffffffffffffffffffffffffffffffff16867f045dfa01dcba2b36aba1d3dc4a874f4b0c5d2fbeb8d2c4b34a7d88c8d8f929d1336000896000604051610da29493929190611e77565b60405180910390a45050506001600081905550505050565b60026000541415610e00576040517f08c379a0000000000000000000000000000000000000000000000000000000008152600401610df790611f5e565b60405180910390fd5b600260008190555060008111610e4b576040517f08c379a0000000000000000000000000000000000000000000000000000000008152600401610e4290611efe565b60405180910390fd5b6004543414610e8f576040517f08c379a0000000000000000000000000000000000000000000000000000000008152600401610e8690611f1e565b60405180910390fd5b610e996001611aaf565b6000610ea56001611aa1565b90506040518060e001604052808281526020018573ffffffffffffffffffffffffffffffffffffffff1681526020018481526020013373ffffffffffffffffffffffffffffffffffffffff168152602001600073ffffffffffffffffffffffffffffffffffffffff16815260200183815260200160001515815250600560008381526020019081526020016000206000820151816000015560208201518160010160006101000a81548173ffffffffffffffffffffffffffffffffffffffff021916908373ffffffffffffffffffffffffffffffffffffffff1602179055506040820151816002015560608201518160030160006101000a81548173ffffffffffffffffffffffffffffffffffffffff021916908373ffffffffffffffffffffffffffffffffffffffff16021790555060808201518160040160006101000a81548173ffffffffffffffffffffffffffffffffffffffff021916908373ffffffffffffffffffffffffffffffffffffffff16021790555060a0820151816005015560c08201518160060160006101000a81548160ff0219169083151502179055509050508373ffffffffffffffffffffffffffffffffffffffff166323b872dd3330866040518463ffffffff1660e01b815260040161108693929190611e40565b600060405180830381600087803b1580156110a057600080fd5b505af11580156110b4573d6000803e3d6000fd5b50505050828473ffffffffffffffffffffffffffffffffffffffff16827f045dfa01dcba2b36aba1d3dc4a874f4b0c5d2fbeb8d2c4b34a7d88c8d8f929d13360008760006040516111089493929190611e77565b60405180910390a4506001600081905550505050565b60026000541415611164576040517f08c379a000000000000000000000000000000000000000000000000000000000815260040161115b90611f5e565b60405180910390fd5b6002600081905550600081116111af576040517f08c379a00000000000000000000000000000000000000000000000000000000081526004016111a690611efe565b60405180910390fd5b6111b96001611aaf565b60006111c56001611aa1565b90506040518060e001604052808281526020018573ffffffffffffffffffffffffffffffffffffffff1681526020018481526020013373ffffffffffffffffffffffffffffffffffffffff168152602001600073ffffffffffffffffffffffffffffffffffffffff16815260200183815260200160001515815250600560008381526020019081526020016000206000820151816000015560208201518160010160006101000a81548173ffffffffffffffffffffffffffffffffffffffff021916908373ffffffffffffffffffffffffffffffffffffffff1602179055506040820151816002015560608201518160030160006101000a81548173ffffffffffffffffffffffffffffffffffffffff021916908373ffffffffffffffffffffffffffffffffffffffff16021790555060808201518160040160006101000a81548173ffffffffffffffffffffffffffffffffffffffff021916908373ffffffffffffffffffffffffffffffffffffffff16021790555060a0820151816005015560c08201518160060160006101000a81548160ff0219169083151502179055509050508373ffffffffffffffffffffffffffffffffffffffff166323b872dd3330866040518463ffffffff1660e01b81526004016113a693929190611e40565b600060405180830381600087803b1580156113c057600080fd5b505af11580156113d4573d6000803e3d6000fd5b50505050828473ffffffffffffffffffffffffffffffffffffffff16827f045dfa01dcba2b36aba1d3dc4a874f4b0c5d2fbeb8d2c4b34a7d88c8d8f929d13360008760006040516114289493929190611e77565b60405180910390a4506001600081905550505050565b6000806001905080915050919050565b60026000541415611494576040517f08c379a000000000000000000000000000000000000000000000000000000000815260040161148b90611f5e565b60405180910390fd5b6002600081905550600060056000838152602001908152602001600020600501549050600060056000848152602001908152602001600020600201549050813414611514576040517f08c379a000000000000000000000000000000000000000000000000000000000815260040161150b90611ede565b60405180910390fd5b6005600084815260200190815260200160002060030160009054906101000a900473ffffffffffffffffffffffffffffffffffffffff1673ffffffffffffffffffffffffffffffffffffffff166108fc349081150290604051600060405180830381858888f19350505050158015611590573d6000803e3d6000fd5b508373ffffffffffffffffffffffffffffffffffffffff166323b872dd3033846040518463ffffffff1660e01b81526004016115ce93929190611e40565b600060405180830381600087803b1580156115e857600080fd5b505af11580156115fc573d6000803e3d6000fd5b50505050336005600085815260200190815260200160002060040160006101000a81548173ffffffffffffffffffffffffffffffffffffffff021916908373ffffffffffffffffffffffffffffffffffffffff16021790555060016005600085815260200190815260200160002060060160006101000a81548160ff02191690831515021790555061168e6002611aaf565b600360009054906101000a900473ffffffffffffffffffffffffffffffffffffffff1673ffffffffffffffffffffffffffffffffffffffff166108fc6004549081150290604051600060405180830381858888f193505050501580156116f8573d6000803e3d6000fd5b50505060016000819055505050565b606060006117156001611aa1565b905060008060005b838110156117be573373ffffffffffffffffffffffffffffffffffffffff166005600060018461174d9190611fe3565b815260200190815260200160002060030160009054906101000a900473ffffffffffffffffffffffffffffffffffffffff1673ffffffffffffffffffffffffffffffffffffffff1614156117ab576001836117a89190611fe3565b92505b80806117b6906120c7565b91505061171d565b5060008267ffffffffffffffff811115611801577f4e487b7100000000000000000000000000000000000000000000000000000000600052604160045260246000fd5b60405190808252806020026020018201604052801561183a57816020015b611827611ac5565b81526020019060019003908161181f5790505b50905060005b84811015611a96573373ffffffffffffffffffffffffffffffffffffffff16600560006001846118709190611fe3565b815260200190815260200160002060030160009054906101000a900473ffffffffffffffffffffffffffffffffffffffff1673ffffffffffffffffffffffffffffffffffffffff161415611a835760006001826118cd9190611fe3565b90506000600560008381526020019081526020016000209050806040518060e0016040529081600082015481526020016001820160009054906101000a900473ffffffffffffffffffffffffffffffffffffffff1673ffffffffffffffffffffffffffffffffffffffff1673ffffffffffffffffffffffffffffffffffffffff168152602001600282015481526020016003820160009054906101000a900473ffffffffffffffffffffffffffffffffffffffff1673ffffffffffffffffffffffffffffffffffffffff1673ffffffffffffffffffffffffffffffffffffffff1681526020016004820160009054906101000a900473ffffffffffffffffffffffffffffffffffffffff1673ffffffffffffffffffffffffffffffffffffffff1673ffffffffffffffffffffffffffffffffffffffff168152602001600582015481526020016006820160009054906101000a900460ff161515151581525050848681518110611a66577f4e487b7100000000000000000000000000000000000000000000000000000000600052603260045260246000fd5b6020026020010181905250600185611a7e9190611fe3565b945050505b8080611a8e906120c7565b915050611840565b508094505050505090565b600081600001549050919050565b6001816000016000828254019250508190555050565b6040518060e0016040528060008152602001600073ffffffffffffffffffffffffffffffffffffffff16815260200160008152602001600073ffffffffffffffffffffffffffffffffffffffff168152602001600073ffffffffffffffffffffffffffffffffffffffff168152602001600081526020016000151581525090565b600081359050611b5581612258565b92915050565b600081359050611b6a8161226f565b92915050565b60008060408385031215611b8357600080fd5b6000611b9185828601611b46565b9250506020611ba285828601611b5b565b9150509250929050565b600080600060608486031215611bc157600080fd5b6000611bcf86828701611b46565b9350506020611be086828701611b5b565b9250506040611bf186828701611b5b565b9150509250925092565b600060208284031215611c0d57600080fd5b6000611c1b84828501611b5b565b91505092915050565b6000611c308383611d94565b60e08301905092915050565b611c458161207f565b82525050565b611c548161206d565b82525050565b611c638161206d565b82525050565b6000611c7482611fa9565b611c7e8185611fc1565b9350611c8983611f99565b8060005b83811015611cba578151611ca18882611c24565b9750611cac83611fb4565b925050600181019050611c8d565b5085935050505092915050565b611cd081612091565b82525050565b611cdf81612091565b82525050565b6000611cf2601d83611fd2565b9150611cfd8261213f565b602082019050919050565b6000611d15601d83611fd2565b9150611d2082612168565b602082019050919050565b6000611d38602883611fd2565b9150611d4382612191565b604082019050919050565b6000611d5b602883611fd2565b9150611d66826121e0565b604082019050919050565b6000611d7e601f83611fd2565b9150611d898261222f565b602082019050919050565b60e082016000820151611daa6000850182611e22565b506020820151611dbd6020850182611c4b565b506040820151611dd06040850182611e22565b506060820151611de36060850182611c3c565b506080820151611df66080850182611c3c565b5060a0820151611e0960a0850182611e22565b5060c0820151611e1c60c0850182611cc7565b50505050565b611e2b816120bd565b82525050565b611e3a816120bd565b82525050565b6000606082019050611e556000830186611c5a565b611e626020830185611c5a565b611e6f6040830184611e31565b949350505050565b6000608082019050611e8c6000830187611c5a565b611e996020830186611c5a565b611ea66040830185611e31565b611eb36060830184611cd6565b95945050505050565b60006020820190508181036000830152611ed68184611c69565b905092915050565b60006020820190508181036000830152611ef781611ce5565b9050919050565b60006020820190508181036000830152611f1781611d08565b9050919050565b60006020820190508181036000830152611f3781611d2b565b9050919050565b60006020820190508181036000830152611f5781611d4e565b9050919050565b60006020820190508181036000830152611f7781611d71565b9050919050565b6000602082019050611f936000830184611e31565b92915050565b6000819050602082019050919050565b600081519050919050565b6000602082019050919050565b600082825260208201905092915050565b600082825260208201905092915050565b6000611fee826120bd565b9150611ff9836120bd565b9250827fffffffffffffffffffffffffffffffffffffffffffffffffffffffffffffffff0382111561202e5761202d612110565b5b828201905092915050565b6000612044826120bd565b915061204f836120bd565b92508282101561206257612061612110565b5b828203905092915050565b60006120788261209d565b9050919050565b600061208a8261209d565b9050919050565b60008115159050919050565b600073ffffffffffffffffffffffffffffffffffffffff82169050919050565b6000819050919050565b60006120d2826120bd565b91507fffffffffffffffffffffffffffffffffffffffffffffffffffffffffffffffff82141561210557612104612110565b5b600182019050919050565b7f4e487b7100000000000000000000000000000000000000000000000000000000600052601160045260246000fd5b7f456e766965206f2076616c6f7220636572746f20646120636f6d707261000000600082015250565b7f507265636f2074656d2071756520736572206d61696f72207175652030000000600082015250565b7f507265636f2074656d207175652073657220696775616c20616f2076616c6f7260008201527f206c69737461646f000000000000000000000000000000000000000000000000602082015250565b7f4f6e6c792070726f64756374206f776e65722063616e20646f2074686973206f60008201527f7065726174696f6e000000000000000000000000000000000000000000000000602082015250565b7f5265656e7472616e637947756172643a207265656e7472616e742063616c6c00600082015250565b6122618161206d565b811461226c57600080fd5b50565b612278816120bd565b811461228357600080fd5b5056fea2646970667358221220817bc84b728f3654f6caf0c042a3c605c0c6fff5195b507ace9027c8a26edd9e64736f6c63430008040033",
  "linkReferences": {},
  "deployedLinkReferences": {}
}