{
  "_format": "hh-sol-artifact-1",
  "contractName": "NFTMarket",
  "sourceName": "contracts/NFTMarket.sol",
  "abi": [
    {
      "inputs": [],
      "stateMutability": "nonpayable",
      "type": "constructor"
    },
    {
      "anonymous": false,
      "inputs": [
        {
          "indexed": true,
          "internalType": "uint256",
          "name": "itemId",
          "type": "uint256"
        },
        {
          "indexed": true,
          "internalType": "address",
          "name": "nftContract",
          "type": "address"
        },
        {
          "indexed": true,
          "internalType": "uint256",
          "name": "tokenId",
          "type": "uint256"
        },
        {
          "indexed": false,
          "internalType": "address",
          "name": "seller",
          "type": "address"
        },
        {
          "indexed": false,
          "internalType": "address",
          "name": "owner",
          "type": "address"
        },
        {
          "indexed": false,
          "internalType": "uint256",
          "name": "price",
          "type": "uint256"
        },
        {
          "indexed": false,
          "internalType": "bool",
          "name": "sold",
          "type": "bool"
        }
      ],
      "name": "MarketItemCreated",
      "type": "event"
    },
    {
      "anonymous": false,
      "inputs": [
        {
          "indexed": true,
          "internalType": "address",
          "name": "from",
          "type": "address"
        },
        {
          "indexed": true,
          "internalType": "address",
          "name": "to",
          "type": "address"
        },
        {
          "indexed": true,
          "internalType": "uint256",
          "name": "tokenId",
          "type": "uint256"
        }
      ],
      "name": "Transfer",
      "type": "event"
    },
    {
      "inputs": [
        {
          "internalType": "address",
          "name": "nftContract",
          "type": "address"
        },
        {
          "internalType": "uint256",
          "name": "tokenId",
          "type": "uint256"
        },
        {
          "internalType": "uint256",
          "name": "price",
          "type": "uint256"
        }
      ],
      "name": "createMarketItem",
      "outputs": [],
      "stateMutability": "payable",
      "type": "function"
    },
    {
      "inputs": [
        {
          "internalType": "address",
          "name": "nftContract",
          "type": "address"
        },
        {
          "internalType": "uint256",
          "name": "itemId",
          "type": "uint256"
        }
      ],
      "name": "createMarketSale",
      "outputs": [],
      "stateMutability": "payable",
      "type": "function"
    },
    {
      "inputs": [],
      "name": "fetchItemsCreated",
      "outputs": [
        {
          "components": [
            {
              "internalType": "uint256",
              "name": "itemId",
              "type": "uint256"
            },
            {
              "internalType": "address",
              "name": "nftContract",
              "type": "address"
            },
            {
              "internalType": "uint256",
              "name": "tokenId",
              "type": "uint256"
            },
            {
              "internalType": "address payable",
              "name": "seller",
              "type": "address"
            },
            {
              "internalType": "address payable",
              "name": "owner",
              "type": "address"
            },
            {
              "internalType": "uint256",
              "name": "price",
              "type": "uint256"
            },
            {
              "internalType": "bool",
              "name": "sold",
              "type": "bool"
            }
          ],
          "internalType": "struct NFTMarket.MarketItem[]",
          "name": "",
          "type": "tuple[]"
        }
      ],
      "stateMutability": "view",
      "type": "function"
    },
    {
      "inputs": [],
      "name": "fetchMarketItems",
      "outputs": [
        {
          "components": [
            {
              "internalType": "uint256",
              "name": "itemId",
              "type": "uint256"
            },
            {
              "internalType": "address",
              "name": "nftContract",
              "type": "address"
            },
            {
              "internalType": "uint256",
              "name": "tokenId",
              "type": "uint256"
            },
            {
              "internalType": "address payable",
              "name": "seller",
              "type": "address"
            },
            {
              "internalType": "address payable",
              "name": "owner",
              "type": "address"
            },
            {
              "internalType": "uint256",
              "name": "price",
              "type": "uint256"
            },
            {
              "internalType": "bool",
              "name": "sold",
              "type": "bool"
            }
          ],
          "internalType": "struct NFTMarket.MarketItem[]",
          "name": "",
          "type": "tuple[]"
        }
      ],
      "stateMutability": "view",
      "type": "function"
    },
    {
      "inputs": [],
      "name": "fetchMyNFTs",
      "outputs": [
        {
          "components": [
            {
              "internalType": "uint256",
              "name": "itemId",
              "type": "uint256"
            },
            {
              "internalType": "address",
              "name": "nftContract",
              "type": "address"
            },
            {
              "internalType": "uint256",
              "name": "tokenId",
              "type": "uint256"
            },
            {
              "internalType": "address payable",
              "name": "seller",
              "type": "address"
            },
            {
              "internalType": "address payable",
              "name": "owner",
              "type": "address"
            },
            {
              "internalType": "uint256",
              "name": "price",
              "type": "uint256"
            },
            {
              "internalType": "bool",
              "name": "sold",
              "type": "bool"
            }
          ],
          "internalType": "struct NFTMarket.MarketItem[]",
          "name": "",
          "type": "tuple[]"
        }
      ],
      "stateMutability": "view",
      "type": "function"
    },
    {
      "inputs": [
        {
          "internalType": "uint256",
          "name": "providedId",
          "type": "uint256"
        }
      ],
      "name": "fetchSpecificItem",
      "outputs": [
        {
          "internalType": "uint256",
          "name": "value",
          "type": "uint256"
        }
      ],
      "stateMutability": "view",
      "type": "function"
    },
    {
      "inputs": [],
      "name": "getListingPrice",
      "outputs": [
        {
          "internalType": "uint256",
          "name": "",
          "type": "uint256"
        }
      ],
      "stateMutability": "view",
      "type": "function"
    },
    {
      "inputs": [
        {
          "internalType": "address",
          "name": "nftContract",
          "type": "address"
        },
        {
          "internalType": "uint256",
          "name": "tokenId",
          "type": "uint256"
        },
        {
          "internalType": "uint256",
          "name": "price",
          "type": "uint256"
        }
      ],
      "name": "sellMarketItem",
      "outputs": [],
      "stateMutability": "payable",
      "type": "function"
    },
    {
      "inputs": [
        {
          "internalType": "address",
          "name": "nftContract",
          "type": "address"
        },
        {
          "internalType": "address",
          "name": "from",
          "type": "address"
        },
        {
          "internalType": "address",
          "name": "to",
          "type": "address"
        },
        {
          "internalType": "uint256",
          "name": "tokenId",
          "type": "uint256"
        }
      ],
      "name": "transferFrom",
      "outputs": [],
      "stateMutability": "payable",
      "type": "function"
    }
  ],
  "bytecode": "0x60806040526658d15e1762800060045534801561001b57600080fd5b50600160008190555033600360006101000a81548173ffffffffffffffffffffffffffffffffffffffff021916908373ffffffffffffffffffffffffffffffffffffffff160217905550611f1b806100746000396000f3fe6080604052600436106100865760003560e01c806358eb2df51161005957806358eb2df5146101285780635cd91d6c14610144578063619c19ac14610160578063c23b139e1461019d578063f064c32e146101b957610086565b80630f08efe01461008b57806312e85585146100b657806315dacbea146100e1578063202e3740146100fd575b600080fd5b34801561009757600080fd5b506100a06101e4565b6040516100ad9190611b8a565b60405180910390f35b3480156100c257600080fd5b506100cb6104fa565b6040516100d89190611c2c565b60405180910390f35b6100fb60048036038101906100f691906117fe565b610504565b005b34801561010957600080fd5b506101126106ae565b60405161011f9190611b8a565b60405180910390f35b610142600480360381019061013d919061189d565b610a48565b005b61015e6004803603810190610159919061189d565b610dac565b005b34801561016c57600080fd5b50610187600480360381019061018291906118ec565b6110cc565b6040516101949190611c2c565b60405180910390f35b6101b760048036038101906101b29190611861565b6110dc565b005b3480156101c557600080fd5b506101ce611395565b6040516101db9190611b8a565b60405180910390f35b606060006101f2600161172f565b90506000610200600261172f565b61020a600161172f565b6102149190611ce7565b90506000808267ffffffffffffffff811115610259577f4e487b7100000000000000000000000000000000000000000000000000000000600052604160045260246000fd5b60405190808252806020026020018201604052801561029257816020015b61027f611753565b8152602001906001900390816102775790505b50905060005b848110156104ef57600073ffffffffffffffffffffffffffffffffffffffff16600560006001846102c99190611c91565b815260200190815260200160002060040160009054906101000a900473ffffffffffffffffffffffffffffffffffffffff1673ffffffffffffffffffffffffffffffffffffffff1614156104dc5760006001826103269190611c91565b90506000600560008381526020019081526020016000209050806040518060e0016040529081600082015481526020016001820160009054906101000a900473ffffffffffffffffffffffffffffffffffffffff1673ffffffffffffffffffffffffffffffffffffffff1673ffffffffffffffffffffffffffffffffffffffff168152602001600282015481526020016003820160009054906101000a900473ffffffffffffffffffffffffffffffffffffffff1673ffffffffffffffffffffffffffffffffffffffff1673ffffffffffffffffffffffffffffffffffffffff1681526020016004820160009054906101000a900473ffffffffffffffffffffffffffffffffffffffff1673ffffffffffffffffffffffffffffffffffffffff1673ffffffffffffffffffffffffffffffffffffffff168152602001600582015481526020016006820160009054906101000a900460ff1615151515815250508486815181106104bf577f4e487b7100000000000000000000000000000000000000000000000000000000600052603260045260246000fd5b60200260200101819052506001856104d79190611c91565b945050505b80806104e790611d75565b915050610298565b508094505050505090565b6000600454905090565b6002600054141561054a576040517f08c379a000000000000000000000000000000000000000000000000000000000815260040161054190611c0c565b60405180910390fd5b60026000819055508373ffffffffffffffffffffffffffffffffffffffff166323b872dd8484846040518463ffffffff1660e01b815260040161058f93929190611b0e565b600060405180830381600087803b1580156105a957600080fd5b505af11580156105bd573d6000803e3d6000fd5b50505050816005600083815260200190815260200160002060040160006101000a81548173ffffffffffffffffffffffffffffffffffffffff021916908373ffffffffffffffffffffffffffffffffffffffff16021790555060016005600083815260200190815260200160002060060160006101000a81548160ff021916908315150217905550808273ffffffffffffffffffffffffffffffffffffffff168473ffffffffffffffffffffffffffffffffffffffff167fddf252ad1be2c89b69c2b068fc378daa952ba7f163c4a11628f55a4df523b3ef60405160405180910390a4600160008190555050505050565b606060006106bc600161172f565b905060008060005b83811015610765573373ffffffffffffffffffffffffffffffffffffffff16600560006001846106f49190611c91565b815260200190815260200160002060040160009054906101000a900473ffffffffffffffffffffffffffffffffffffffff1673ffffffffffffffffffffffffffffffffffffffff1614156107525760018361074f9190611c91565b92505b808061075d90611d75565b9150506106c4565b5060008267ffffffffffffffff8111156107a8577f4e487b7100000000000000000000000000000000000000000000000000000000600052604160045260246000fd5b6040519080825280602002602001820160405280156107e157816020015b6107ce611753565b8152602001906001900390816107c65790505b50905060005b84811015610a3d573373ffffffffffffffffffffffffffffffffffffffff16600560006001846108179190611c91565b815260200190815260200160002060040160009054906101000a900473ffffffffffffffffffffffffffffffffffffffff1673ffffffffffffffffffffffffffffffffffffffff161415610a2a5760006001826108749190611c91565b90506000600560008381526020019081526020016000209050806040518060e0016040529081600082015481526020016001820160009054906101000a900473ffffffffffffffffffffffffffffffffffffffff1673ffffffffffffffffffffffffffffffffffffffff1673ffffffffffffffffffffffffffffffffffffffff168152602001600282015481526020016003820160009054906101000a900473ffffffffffffffffffffffffffffffffffffffff1673ffffffffffffffffffffffffffffffffffffffff1673ffffffffffffffffffffffffffffffffffffffff1681526020016004820160009054906101000a900473ffffffffffffffffffffffffffffffffffffffff1673ffffffffffffffffffffffffffffffffffffffff1673ffffffffffffffffffffffffffffffffffffffff168152602001600582015481526020016006820160009054906101000a900460ff161515151581525050848681518110610a0d577f4e487b7100000000000000000000000000000000000000000000000000000000600052603260045260246000fd5b6020026020010181905250600185610a259190611c91565b945050505b8080610a3590611d75565b9150506107e7565b508094505050505090565b60026000541415610a8e576040517f08c379a0000000000000000000000000000000000000000000000000000000008152600401610a8590611c0c565b60405180910390fd5b600260008190555060008111610ad9576040517f08c379a0000000000000000000000000000000000000000000000000000000008152600401610ad090611bcc565b60405180910390fd5b6004543414610b1d576040517f08c379a0000000000000000000000000000000000000000000000000000000008152600401610b1490611bec565b60405180910390fd5b610b27600161173d565b6000610b33600161172f565b90506040518060e001604052808281526020018573ffffffffffffffffffffffffffffffffffffffff1681526020018481526020013373ffffffffffffffffffffffffffffffffffffffff168152602001600073ffffffffffffffffffffffffffffffffffffffff16815260200183815260200160001515815250600560008381526020019081526020016000206000820151816000015560208201518160010160006101000a81548173ffffffffffffffffffffffffffffffffffffffff021916908373ffffffffffffffffffffffffffffffffffffffff1602179055506040820151816002015560608201518160030160006101000a81548173ffffffffffffffffffffffffffffffffffffffff021916908373ffffffffffffffffffffffffffffffffffffffff16021790555060808201518160040160006101000a81548173ffffffffffffffffffffffffffffffffffffffff021916908373ffffffffffffffffffffffffffffffffffffffff16021790555060a0820151816005015560c08201518160060160006101000a81548160ff0219169083151502179055509050508373ffffffffffffffffffffffffffffffffffffffff166323b872dd3330866040518463ffffffff1660e01b8152600401610d1493929190611b0e565b600060405180830381600087803b158015610d2e57600080fd5b505af1158015610d42573d6000803e3d6000fd5b50505050828473ffffffffffffffffffffffffffffffffffffffff16827f045dfa01dcba2b36aba1d3dc4a874f4b0c5d2fbeb8d2c4b34a7d88c8d8f929d1336000876000604051610d969493929190611b45565b60405180910390a4506001600081905550505050565b60026000541415610df2576040517f08c379a0000000000000000000000000000000000000000000000000000000008152600401610de990611c0c565b60405180910390fd5b600260008190555060008111610e3d576040517f08c379a0000000000000000000000000000000000000000000000000000000008152600401610e3490611bcc565b60405180910390fd5b610e47600161173d565b6000610e53600161172f565b90506040518060e001604052808281526020018573ffffffffffffffffffffffffffffffffffffffff1681526020018481526020013373ffffffffffffffffffffffffffffffffffffffff168152602001600073ffffffffffffffffffffffffffffffffffffffff16815260200183815260200160001515815250600560008381526020019081526020016000206000820151816000015560208201518160010160006101000a81548173ffffffffffffffffffffffffffffffffffffffff021916908373ffffffffffffffffffffffffffffffffffffffff1602179055506040820151816002015560608201518160030160006101000a81548173ffffffffffffffffffffffffffffffffffffffff021916908373ffffffffffffffffffffffffffffffffffffffff16021790555060808201518160040160006101000a81548173ffffffffffffffffffffffffffffffffffffffff021916908373ffffffffffffffffffffffffffffffffffffffff16021790555060a0820151816005015560c08201518160060160006101000a81548160ff0219169083151502179055509050508373ffffffffffffffffffffffffffffffffffffffff166323b872dd3330866040518463ffffffff1660e01b815260040161103493929190611b0e565b600060405180830381600087803b15801561104e57600080fd5b505af1158015611062573d6000803e3d6000fd5b50505050828473ffffffffffffffffffffffffffffffffffffffff16827f045dfa01dcba2b36aba1d3dc4a874f4b0c5d2fbeb8d2c4b34a7d88c8d8f929d13360008760006040516110b69493929190611b45565b60405180910390a4506001600081905550505050565b6000806001905080915050919050565b60026000541415611122576040517f08c379a000000000000000000000000000000000000000000000000000000000815260040161111990611c0c565b60405180910390fd5b60026000819055506000600560008381526020019081526020016000206005015490506000600560008481526020019081526020016000206002015490508134146111a2576040517f08c379a000000000000000000000000000000000000000000000000000000000815260040161119990611bac565b60405180910390fd5b6005600084815260200190815260200160002060030160009054906101000a900473ffffffffffffffffffffffffffffffffffffffff1673ffffffffffffffffffffffffffffffffffffffff166108fc349081150290604051600060405180830381858888f1935050505015801561121e573d6000803e3d6000fd5b508373ffffffffffffffffffffffffffffffffffffffff166323b872dd3033846040518463ffffffff1660e01b815260040161125c93929190611b0e565b600060405180830381600087803b15801561127657600080fd5b505af115801561128a573d6000803e3d6000fd5b50505050336005600085815260200190815260200160002060040160006101000a81548173ffffffffffffffffffffffffffffffffffffffff021916908373ffffffffffffffffffffffffffffffffffffffff16021790555060016005600085815260200190815260200160002060060160006101000a81548160ff02191690831515021790555061131c600261173d565b600360009054906101000a900473ffffffffffffffffffffffffffffffffffffffff1673ffffffffffffffffffffffffffffffffffffffff166108fc6004549081150290604051600060405180830381858888f19350505050158015611386573d6000803e3d6000fd5b50505060016000819055505050565b606060006113a3600161172f565b905060008060005b8381101561144c573373ffffffffffffffffffffffffffffffffffffffff16600560006001846113db9190611c91565b815260200190815260200160002060030160009054906101000a900473ffffffffffffffffffffffffffffffffffffffff1673ffffffffffffffffffffffffffffffffffffffff161415611439576001836114369190611c91565b92505b808061144490611d75565b9150506113ab565b5060008267ffffffffffffffff81111561148f577f4e487b7100000000000000000000000000000000000000000000000000000000600052604160045260246000fd5b6040519080825280602002602001820160405280156114c857816020015b6114b5611753565b8152602001906001900390816114ad5790505b50905060005b84811015611724573373ffffffffffffffffffffffffffffffffffffffff16600560006001846114fe9190611c91565b815260200190815260200160002060030160009054906101000a900473ffffffffffffffffffffffffffffffffffffffff1673ffffffffffffffffffffffffffffffffffffffff16141561171157600060018261155b9190611c91565b90506000600560008381526020019081526020016000209050806040518060e0016040529081600082015481526020016001820160009054906101000a900473ffffffffffffffffffffffffffffffffffffffff1673ffffffffffffffffffffffffffffffffffffffff1673ffffffffffffffffffffffffffffffffffffffff168152602001600282015481526020016003820160009054906101000a900473ffffffffffffffffffffffffffffffffffffffff1673ffffffffffffffffffffffffffffffffffffffff1673ffffffffffffffffffffffffffffffffffffffff1681526020016004820160009054906101000a900473ffffffffffffffffffffffffffffffffffffffff1673ffffffffffffffffffffffffffffffffffffffff1673ffffffffffffffffffffffffffffffffffffffff168152602001600582015481526020016006820160009054906101000a900460ff1615151515815250508486815181106116f4577f4e487b7100000000000000000000000000000000000000000000000000000000600052603260045260246000fd5b602002602001018190525060018561170c9190611c91565b945050505b808061171c90611d75565b9150506114ce565b508094505050505090565b600081600001549050919050565b6001816000016000828254019250508190555050565b6040518060e0016040528060008152602001600073ffffffffffffffffffffffffffffffffffffffff16815260200160008152602001600073ffffffffffffffffffffffffffffffffffffffff168152602001600073ffffffffffffffffffffffffffffffffffffffff168152602001600081526020016000151581525090565b6000813590506117e381611eb7565b92915050565b6000813590506117f881611ece565b92915050565b6000806000806080858703121561181457600080fd5b6000611822878288016117d4565b9450506020611833878288016117d4565b9350506040611844878288016117d4565b9250506060611855878288016117e9565b91505092959194509250565b6000806040838503121561187457600080fd5b6000611882858286016117d4565b9250506020611893858286016117e9565b9150509250929050565b6000806000606084860312156118b257600080fd5b60006118c0868287016117d4565b93505060206118d1868287016117e9565b92505060406118e2868287016117e9565b9150509250925092565b6000602082840312156118fe57600080fd5b600061190c848285016117e9565b91505092915050565b60006119218383611a62565b60e08301905092915050565b61193681611d2d565b82525050565b61194581611d1b565b82525050565b61195481611d1b565b82525050565b600061196582611c57565b61196f8185611c6f565b935061197a83611c47565b8060005b838110156119ab5781516119928882611915565b975061199d83611c62565b92505060018101905061197e565b5085935050505092915050565b6119c181611d3f565b82525050565b6119d081611d3f565b82525050565b60006119e3601d83611c80565b91506119ee82611ded565b602082019050919050565b6000611a06601d83611c80565b9150611a1182611e16565b602082019050919050565b6000611a29602883611c80565b9150611a3482611e3f565b604082019050919050565b6000611a4c601f83611c80565b9150611a5782611e8e565b602082019050919050565b60e082016000820151611a786000850182611af0565b506020820151611a8b602085018261193c565b506040820151611a9e6040850182611af0565b506060820151611ab1606085018261192d565b506080820151611ac4608085018261192d565b5060a0820151611ad760a0850182611af0565b5060c0820151611aea60c08501826119b8565b50505050565b611af981611d6b565b82525050565b611b0881611d6b565b82525050565b6000606082019050611b23600083018661194b565b611b30602083018561194b565b611b3d6040830184611aff565b949350505050565b6000608082019050611b5a600083018761194b565b611b67602083018661194b565b611b746040830185611aff565b611b8160608301846119c7565b95945050505050565b60006020820190508181036000830152611ba4818461195a565b905092915050565b60006020820190508181036000830152611bc5816119d6565b9050919050565b60006020820190508181036000830152611be5816119f9565b9050919050565b60006020820190508181036000830152611c0581611a1c565b9050919050565b60006020820190508181036000830152611c2581611a3f565b9050919050565b6000602082019050611c416000830184611aff565b92915050565b6000819050602082019050919050565b600081519050919050565b6000602082019050919050565b600082825260208201905092915050565b600082825260208201905092915050565b6000611c9c82611d6b565b9150611ca783611d6b565b9250827fffffffffffffffffffffffffffffffffffffffffffffffffffffffffffffffff03821115611cdc57611cdb611dbe565b5b828201905092915050565b6000611cf282611d6b565b9150611cfd83611d6b565b925082821015611d1057611d0f611dbe565b5b828203905092915050565b6000611d2682611d4b565b9050919050565b6000611d3882611d4b565b9050919050565b60008115159050919050565b600073ffffffffffffffffffffffffffffffffffffffff82169050919050565b6000819050919050565b6000611d8082611d6b565b91507fffffffffffffffffffffffffffffffffffffffffffffffffffffffffffffffff821415611db357611db2611dbe565b5b600182019050919050565b7f4e487b7100000000000000000000000000000000000000000000000000000000600052601160045260246000fd5b7f456e766965206f2076616c6f7220636572746f20646120636f6d707261000000600082015250565b7f507265636f2074656d2071756520736572206d61696f72207175652030000000600082015250565b7f507265636f2074656d207175652073657220696775616c20616f2076616c6f7260008201527f206c69737461646f000000000000000000000000000000000000000000000000602082015250565b7f5265656e7472616e637947756172643a207265656e7472616e742063616c6c00600082015250565b611ec081611d1b565b8114611ecb57600080fd5b50565b611ed781611d6b565b8114611ee257600080fd5b5056fea2646970667358221220c2f71d8f5f2a716401d7b2e83cb2a88e012a91429237571f0f36113bffde748f64736f6c63430008040033",
  "linkReferences": {},
  "deployedLinkReferences": {}
}